:020000040000FA
:060000005FEF1CF012008E
:020006001200E6
:06000800CEEF00F0120033
:02000E00CD9093
:040010009D901200AD
:04001400BD6A1200AF
:060018002CEF01F01200C4
:02001E000100DF
:0C002000423900009600000016000000AD
:04002C00D9CFE6FF43
:10003000DACFE6FFE1CFD9FFE2CFDAFFE652E652B0
:10004000DE6ADD6A94868B969496300EE66E89ECB5
:100050001CF0E5529486180EE66E89EC1CF0E55211
:100060008250080B080A01E0010E006E016A00BE12
:10007000016800C0DEFF01C0DDFFDF5000D0E552A7
:10008000E552E552E5CFDAFFE7CFD9FF1200D9CF2D
:10009000E6FFDACFE6FFE1CFD9FFE2CFDAFFE652A3
:1000A000DF6ADFCF00F0080EE76E0018E8AE02D07E
:1000B000E73402D0E750005C22E28B969496010E62
:1000C000E66E89EC1CF0E552FD0EDB50010BE8B04A
:1000D0009486E8A09496050EE66E89EC1CF0E55235
:1000E0009486020EE66E89EC1CF0E552FD0EDB40B4
:1000F0007F0BE76EFD0EE7CFDBFFDF2AD2D7E5529D
:10010000E552E5CFDAFFE7CFD9FF1200D9CFE6FFFE
:10011000DACFE6FFE1CFD9FFE2CFDAFFE652E652CF
:10012000DF6A010EDB6A010EDBCF00F0080EE76E1E
:100130000018E8AE02D0E73402D0E750005C24E2B9
:100140008B9694960000000094860000000000004A
:10015000000000000000000000008250080B01E0D9
:10016000010EF36E010EDB5004E0D890F336E80682
:10017000FCE1F350DF10DF6E050EE66E89EC1CF03B
:10018000E552010EDB2ACFD7DF5000D0E552E55211
:10019000E552E5CFDAFFE7CFD9FF1200E9CFE4FF60
:1001A000EACFE4FFF6CFE4FFF7CFE4FFF8CFE4FFB8
:1001B000F5CFE4FFF3CFE4FFF4CFE4FFFACFE4FFA1
:1001C000FBCFE4FF00EE16F0140EE80403E3EECFDD
:1001D000E4FFFBD700EE00F0160EE80403E3EECFD9
:1001E000E4FFFBD7E652F2A410D0D59ECD90F29456
:1001F0009DEC1CF007EC00F0010E0001966F976B70
:10020000010E00019A6F9B6B01D000D0E55200EE09
:1002100015F0160EE80403E3E5CFEDFFFBD700EE83
:1002200029F0140EE80403E3E5CFEDFFFBD7E5CF9B
:10023000FBFFE5CFFAFFE5CFF4FFE5CFF3FFE5CF16
:10024000F5FFE5CFF8FFE5CFF7FFE5CFF6FFE5CF08
:10025000EAFFE5CFE9FF1100D8CFE4FFE0CFE4FFEC
:10026000E46EE9CFE4FFEACFE4FFF6CFE4FFF7CF97
:10027000E4FFF8CFE4FFF5CFE4FFF3CFE4FFF4CFE2
:10028000E4FFFACFE4FFFBCFE4FF00EE16F0140E1C
:10029000E80403E3EECFE4FFFBD700EE00F0160E18
:1002A000E80403E3EECFE4FFFBD7E652F0A004D06E
:1002B0008972D8D90000F090E55200EE15F0160EC4
:1002C000E80403E3E5CFEDFFFBD700EE29F0140EC1
:1002D000E80403E3E5CFEDFFFBD7E5CFFBFFE5CF78
:1002E000FAFFE5CFF4FFE5CFF3FFE5CFF5FFE5CF6C
:1002F000F8FFE5CFF7FFE5CFF6FFE5CFEAFFE5CF63
:10030000E9FFE550E5CFE0FFE5CFD8FF10002CD89E
:1003100000009AD9000092908980929289824BD8ED
:1003200000001200000000000000000000000000BB
:1003300000000000000000000000000000000000BD
:10034000000000000000000000D012000F0EE66E5A
:100350003FEC1CF0E55200D01200050EE66E3FECBB
:100360001CF0E55200D01200956A836A2B0EE66EEF
:10037000A9EC17F0E55276EC1BF0000901E0FBD781
:100380000D0EE66E67EC1AF0E55276EC1BF00009F4
:1003900001E0FBD7130EE66E67EC1AF0E55276EC3F
:1003A0001BF0000901E0FBD7010EE66E67EC1AF0C6
:1003B000E55200D0120076EC1BF0000901E0FBD7FB
:1003C000010EE66E67EC1AF0E55276EC1BF00009C0
:1003D00001E0FBD76E0EE66E3FEC1CF0E55276ECCA
:1003E0001BF0000901E0FBD73D0EE66E2F0EE66E16
:1003F000000EE66E06EC19F0E552E552E55276EC99
:100400001BF0000901E0FBD7140EE66EACEC19F00E
:10041000E55276EC1BF0000901E0FBD76E0EE66EAC
:100420003FEC1CF0E5522B0EE66E2F0EE66E000E32
:10043000E66E06EC19F0E552E552E552C80EE66E9E
:1004400000EC1CF0E552897076EC1BF0000901E02D
:10045000FBD7010EE66E67EC1AF0E55276EC1BF066
:10046000000901E0FBD76E0EE66E3FEC1CF0E55292
:1004700076EC1BF0000901E0FBD7160EE66E2F0E9E
:10048000E66E000EE66E06EC19F0E552E552E55216
:1004900076EC1BF0000901E0FBD7400EE66EACECF9
:1004A00019F0E55276EC1BF0000901E0FBD76E0E67
:1004B000E66E3FEC1CF0E552040EE66E2F0EE66E83
:1004C000000EE66E06EC19F0E552E552E55276ECC8
:1004D0001BF0000901E0FBD7140EE66EACEC19F03E
:1004E000E55276EC1BF0000901E0FBD76E0EE66EDC
:1004F0003FEC1CF0E55276EC1BF0000901E0FBD765
:10050000F60EE66E2E0EE66E000EE66E06EC19F0A6
:10051000E552E552E55276EC1BF0000901E0FBD70D
:10052000540EE66EACEC19F0E55276EC1BF00009C7
:1005300001E0FBD76E0EE66E3FEC1CF0E552E70ED5
:10054000E66E2E0EE66E000EE66E06EC19F0E55233
:10055000E552E552C80EE66E00EC1CF0E552640E62
:10056000E66E00EC1CF0E552897076EC1BF0000999
:1005700001E0FBD7010EE66E67EC1AF0E55276EC6F
:100580001BF0000901E0FBD76E0EE66E3FEC1CF09D
:10059000E55276EC1BF0000901E0FBD7D60EE66EC3
:1005A0002E0EE66E000EE66E06EC19F0E552E552F0
:1005B000E55276EC1BF0000901E0FBD7400EE66E39
:1005C000ACEC19F0E55276EC1BF0000901E0FBD72A
:1005D0006E0EE66E3FEC1CF0E552C50EE66E2E0E7A
:1005E000E66E000EE66E06EC19F0E552E552E552B5
:1005F00076EC1BF0000901E0FBD7140EE66EACECC4
:1006000019F0E55276EC1BF0000901E0FBD76E0E05
:10061000E66E3FEC1CF0E55276EC1BF0000901E0C1
:10062000FBD7C00EE66E2E0EE66E000EE66E06ECF2
:1006300019F0E552E552E552C80EE66E00EC1CF0EA
:10064000E5528970B8D6120093829488948A948C6B
:10065000948EF18AF09CF086F090D08EF28EF28C1F
:1006600000D01200D9CFE6FFDACFE6FFE1CFD9FF05
:10067000E2CFDAFFE652E652DE6ADD6AF00E82145D
:10068000DE6EDD6ADECF00F0DDCF01F0040ED89023
:1006900001320032E804FBE100C0DEFF01C0DDFFF3
:1006A000D9CFE9FFDACFEAFFEE50ED1003E1D9EC44
:1006B0000DF0B2D0D9CFE9FFDACFEAFF010EEE1884
:1006C00001E1ED5003E1D9EC0DF0A6D0D9CFE9FF5F
:1006D000DACFEAFF020EEE1801E1ED5003E1D9ECAA
:1006E0000DF09AD0D9CFE9FFDACFEAFF030EEE186A
:1006F00001E1ED5002E198D88FD0D9CFE9FFDACFF0
:10070000EAFF040EEE1801E1ED5003E1D9EC0DF023
:1007100083D0D9CFE9FFDACFEAFF050EEE1801E169
:10072000ED5003E1D9EC0DF077D0D9CFE9FFDACF66
:10073000EAFF060EEE1801E1ED5003E1D9EC0DF0F1
:100740006BD0D9CFE9FFDACFEAFF070EEE1801E14F
:10075000ED5003E131EC08F05FD0D9CFE9FFDACFFB
:10076000EAFF080EEE1801E1ED5003E1D9EC0DF0BF
:1007700053D0D9CFE9FFDACFEAFF090EEE1801E135
:10078000ED5003E1D9EC0DF047D0D9CFE9FFDACF36
:10079000EAFF0A0EEE1801E1ED5003E1D9EC0DF08D
:1007A0003BD0D9CFE9FFDACFEAFF0B0EEE1801E11B
:1007B000ED5003E137EC08F02FD0D9CFE9FFDACFC5
:1007C000EAFF0C0EEE1801E1ED5003E1D9EC0DF05B
:1007D00023D0D9CFE9FFDACFEAFF0D0EEE1801E101
:1007E000ED5003E1D9EC0DF017D0D9CFE9FFDACF06
:1007F000EAFF0E0EEE1801E1ED5003E1D9EC0DF029
:100800000BD0D9CFE9FFDACFEAFF0F0EEE1801E1E6
:10081000ED5002E184EC0BF0E552E552E552E5CFF4
:10082000DAFFE7CFD9FF120015D8000038D8000052
:10083000E8D8000000019651971101E10000000185
:10084000966B976B29DA000073DA000069DB000011
:1008500000D0120007EC00F0CD8ECD82CD9ACD985D
:10086000CD96CD84000EE66EE66A95EC1BF0E5525F
:10087000E5529DEC1CF0D59CD58AD598D596D584AB
:10088000D582D5801D0EE66E1B0EE66EB1EC1BF018
:10089000E552E552F184F294F28A00D0120076EC2F
:1008A0001BF0000901E0FBD7010EE66E67EC1AF0C1
:1008B000E55276EC1BF0000901E0FBD76E0EE66E08
:1008C0003FEC1CF0E55276EC1BF0000901E0FBD791
:1008D000AB0EE66E2E0EE66E000EE66E06EC19F01E
:1008E000E552E552E55276EC1BF0000901E0FBD73A
:1008F000400EE66EACEC19F0E55276EC1BF0000908
:1009000001E0FBD76E0EE66E3FEC1CF0E552980E50
:10091000E66E2E0EE66E000EE66E06EC19F0E5525F
:10092000E552E552C80EE66E00EC1CF0E55276EC9E
:100930001BF0000901E0FBD7140EE66EACEC19F0D9
:10094000E55276EC1BF0000901E0FBD76E0EE66E77
:100950003FEC1CF0E55276EC1BF0000901E0FBD700
:100960008B0EE66E2E0EE66E000EE66E06EC19F0AD
:10097000E552E552E55276EC1BF0000901E0FBD7A9
:10098000540EE66EACEC19F0E55276EC1BF0000963
:1009900001E0FBD76E0EE66E3FEC1CF0E552860ED2
:1009A000E66E2E0EE66E000EE66E06EC19F0E552CF
:1009B000E552E552640EE66E00EC1CF0E552820E44
:1009C000E66E2E0EE66E000EE66E06EC19F0E552AF
:1009D000E552E552640EE66E00EC1CF0E552800E26
:1009E000E66E2E0EE66E000EE66E06EC19F0E5528F
:1009F000E552E552640EE66E00EC1CF0E55200D0C4
:100A0000120076EC1BF0000901E0FBD7010EE66E48
:100A100067EC1AF0E55276EC1BF0000901E0FBD719
:100A20006E0EE66E3FEC1CF0E55276EC1BF0000912
:100A300001E0FBD76F0EE66E2E0EE66E000EE66E40
:100A400006EC19F0E552E552E55276EC1BF0000990
:100A500001E0FBD7400EE66EACEC19F0E55276EC07
:100A60001BF0000901E0FBD76E0EE66E3FEC1CF0B8
:100A7000E552D58ECD806B0EE66E2E0EE66E000E24
:100A8000E66E06EC19F0E552E552E552640EE66EAC
:100A900000EC1CF0E552670EE66E2E0EE66E000EC0
:100AA000E66E06EC19F0E552E552E552640EE66E8C
:100AB00000EC1CF0E552630EE66E2E0EE66E000EA4
:100AC000E66E06EC19F0E552E552E552640EE66E6C
:100AD00000EC1CF0E5525F0EE66E2E0EE66E000E88
:100AE000E66E06EC19F0E552E552E552640EE66E4C
:100AF00000EC1CF0E5525B0EE66E2E0EE66E000E6C
:100B0000E66E06EC19F0E552E552E552640EE66E2B
:100B100000EC1CF0E552570EE66E2E0EE66E000E4F
:100B2000E66E06EC19F0E552E552E552640EE66E0B
:100B300000EC1CF0E55276EC1BF0000901E0FBD75D
:100B4000140EE66EACEC19F0E552530EE66E2E0E66
:100B5000E66E000EE66E06EC19F0E552E552E5523F
:100B6000640EE66E00EC1CF0E5524F0EE66E2E0EA3
:100B7000E66E000EE66E06EC19F0E552E552E5521F
:100B8000640EE66E00EC1CF0E5524B0EE66E2E0E87
:100B9000E66E000EE66E06EC19F0E552E552E552FF
:100BA000640EE66E00EC1CF0E552470EE66E2E0E6B
:100BB000E66E000EE66E06EC19F0E552E552E552DF
:100BC000640EE66E00EC1CF0E552430EE66E2E0E4F
:100BD000E66E000EE66E06EC19F0E552E552E552BF
:100BE000640EE66E00EC1CF0E5523F0EE66E2E0E33
:100BF000E66E000EE66E06EC19F0E552E552E5529F
:100C0000640EE66E00EC1CF0E55276EC1BF0000979
:100C100001E0FBD7540EE66EACEC19F0E5523B0E4A
:100C2000E66E2E0EE66E000EE66E06EC19F0E5524C
:100C3000E552E552640EE66E00EC1CF0E552370E0C
:100C4000E66E2E0EE66E000EE66E06EC19F0E5522C
:100C5000E552E552640EE66E00EC1CF0E552330EF0
:100C6000E66E2E0EE66E000EE66E06EC19F0E5520C
:100C7000E552E552640EE66E00EC1CF0E5522F0ED4
:100C8000E66E2E0EE66E000EE66E06EC19F0E552EC
:100C9000E552E55200D01200D9CFE6FFDACFE6FFE9
:100CA000E1CFD9FFE2CFDAFFE652E652DE6ADD6A33
:100CB00076EC1BF0000901E0FBD7010EE66E67EC55
:100CC0001AF0E55276EC1BF0000901E0FBD76E0E3E
:100CD000E66E3FEC1CF0E55276EC1BF0000901E0FB
:100CE000FBD7210EE66E2E0EE66E000EE66E06ECCB
:100CF00019F0E552E552E55238EC1BF0F3CFDEFF78
:100D0000F4CFDDFF040E1E6E1F6ADECF23F0DDCFB1
:100D100024F06AEC15F01CC098F01DC099F000D0CA
:100D2000E552E552E552E5CFDAFFE7CFD9FF1200F1
:100D3000D9CFE6FFDACFE6FFE1CFD9FFE2CFDAFF86
:100D40000A0EE12402E3E168E652E16E98C0E6FF94
:100D500099C0E6FF1A0EE66E2E0EE66E000EE66EE7
:100D6000D9CFE6FFDACFE6FF1FEC18F0006E070ED2
:100D7000E15C02E2E16AE552E16E005076EC1BF0C4
:100D8000000901E0FBD7010EE66E67EC1AF0E552B0
:100D900076EC1BF0000901E0FBD76E0EE66E3FEC2F
:100DA0001CF0E55276EC1BF0000901E0FBD7070EC2
:100DB000E66E2E0EE66E000EE66E06EC19F0E552BB
:100DC000E552E55276EC1BF0000901E0FBD7400E3E
:100DD000E66EACEC19F0E55276EC1BF0000901E090
:100DE000FBD76E0EE66E3FEC1CF0E552D9CFE6FF66
:100DF000DACFE6FF95EC1AF0E552E552000199359D
:100E000004E298516408000E995522E276EC1BF03A
:100E1000000901E0FBD7140EE66EACEC19F0E552C8
:100E200076EC1BF0000901E0FBD76E0EE66E3FEC9E
:100E30001CF0E552F30EE66E2D0EE66E000EE66E29
:100E400006EC19F0E552E552E552B3D85DD05BD01F
:100E50003C0E000199AF02D0D89003D0985D000EEF
:100E6000995922E276EC1BF0000901E0FBD7140E41
:100E7000E66EACEC19F0E55276EC1BF0000901E0EF
:100E8000FBD76E0EE66E3FEC1CF0E552E00EE66E10
:100E90002D0EE66E000EE66E06EC19F0E552E552F8
:100EA000E55240D831D02FD076EC1BF0000901E09C
:100EB000FBD7140EE66EACEC19F0E55276EC1BF0A5
:100EC000000901E0FBD76E0EE66E3FEC1CF0E55228
:100ED000D30EE66E2D0EE66E000EE66E06EC19F0F1
:100EE000E552E552E552C80EE66E00EC1CF0E55204
:100EF000C80EE66E00EC1CF0E552640EE66E00ECE7
:100F00001CF0E55201D000D00A0EE15C02E2E16A79
:100F1000E552E16EE552E5CFDAFFE7CFD9FF1200E7
:100F200000D01200D9CFE6FFDACFE6FFE1CFD9FF3C
:100F3000E2CFDAFFE652E652DE6ADD6A060EE66EC0
:100F4000CDEC1BF0E5521C0EE66E010EE66E0AECCF
:100F50001AF0E552E5529494DE6ADD6ADECF00F0C5
:100F6000DDCF01F0D890015004E6060E005C000EC3
:100F7000015816E28D0EE66EE8EC1BF0E5521E0EEF
:100F8000E66E00EC1CF0E5520AEC00F01E0EE66E78
:100F900000EC1CF0E552DF2A010E01E3DB2ADED76C
:100FA00000D0E552E552E552E5CFDAFFE7CFD9FFB1
:100FB0001200D9CFE6FFDACFE6FFE1CFD9FFE2CFCB
:100FC000DAFFE652E652DE6ADD6A060EE66ECDEC28
:100FD0001BF0E5521C0EE66E010EE66E0AEC1AF0EE
:100FE000E552E5529494DE6ADD6ADECF00F0DDCF93
:100FF00001F0D890015004E6060E005C000E015886
:1010000027E2580EE66EE8EC1BF0E5520A0EE66E9B
:1010100000EC1CF0E5520AEC00F00A0EE66E00EC63
:101020001CF0E552580EE66EE8EC1BF0E5520A0E95
:10103000E66E00EC1CF0E5520AEC00F01E0EE66EC7
:1010400000EC1CF0E552DF2A010E01E3DB2ACDD7CC
:1010500000D0E552E552E552E5CFDAFFE7CFD9FF00
:10106000120003D8000000D0120000D012000BD8EC
:1010700000002DD80000DDD8000065DA000042DB5A
:10108000000000D0120007EC00F0CD8ECD82CD9A8A
:10109000CD98CD96CD84000EE66EE66A95EC1BF0F9
:1010A000E552E5529DEC1CF0D59CD58AD598D59695
:1010B000D584D582D5801D0EE66E1B0EE66EB1EC92
:1010C0001BF0E552E552F184F294F28A120076ECBC
:1010D0001BF0000901E0FBD7010EE66E67EC1AF089
:1010E000E55276EC1BF0000901E0FBD76E0EE66ED0
:1010F0003FEC1CF0E55276EC1BF0000901E0FBD759
:10110000AB0EE66E2E0EE66E000EE66E06EC19F0E5
:10111000E552E552E55276EC1BF0000901E0FBD701
:10112000400EE66EACEC19F0E55276EC1BF00009CF
:1011300001E0FBD76E0EE66E3FEC1CF0E552980E18
:10114000E66E2E0EE66E000EE66E06EC19F0E55227
:10115000E552E552C80EE66E00EC1CF0E55276EC66
:101160001BF0000901E0FBD7140EE66EACEC19F0A1
:10117000E55276EC1BF0000901E0FBD76E0EE66E3F
:101180003FEC1CF0E55276EC1BF0000901E0FBD7C8
:101190008B0EE66E2E0EE66E000EE66E06EC19F075
:1011A000E552E552E55276EC1BF0000901E0FBD771
:1011B000540EE66EACEC19F0E55276EC1BF000092B
:1011C00001E0FBD76E0EE66E3FEC1CF0E552860E9A
:1011D000E66E2E0EE66E000EE66E06EC19F0E55297
:1011E000E552E552640EE66E00EC1CF0E552820E0C
:1011F000E66E2E0EE66E000EE66E06EC19F0E55277
:10120000E552E552640EE66E00EC1CF0E552800EED
:10121000E66E2E0EE66E000EE66E06EC19F0E55256
:10122000E552E552640EE66E00EC1CF0E55200D08B
:101230001200D9CFE6FFDACFE6FFE1CFD9FFE2CF48
:10124000DAFF100EE12402E3E168E652E16EDE6AA5
:10125000DD6A1D0EF36E020EF3CFDBFF1B0EF36E85
:10126000030EF3CFDBFF040EDB6A050EDB6A060E0E
:10127000DB6A070EDB6A080EDB6A090EDB6A0A0E00
:10128000DB6A0B0EDB6A0C0EDB6A0D0EDB6A010EED
:10129000F36E0E0EF3CFDBFF0F0EDB6A76EC1BF066
:1012A000000901E0FBD7010EE66E67EC1AF0E5528B
:1012B00076EC1BF0000901E0FBD76E0EE66E3FEC0A
:1012C0001CF0E55276EC1BF0000901E0FBD7C40EE0
:1012D000E66E2D0EE66E000EE66E06EC19F0E55297
:1012E000E552E552D58ECD800E0EDBCF00F00F0E0D
:1012F000DBCF01F0D890015004E60F0E005C000E29
:10130000015801E3C6D038EC1BF0F3CF00F0F4CF66
:1013100001F00050DF1803E10150DE52DD1801E159
:10132000B7D00E0EDB2A0F0E01E3DB2A38EC1BF0E0
:10133000F3CFDEFFF4CFDDFF57EC1BF0040EF3CF4D
:10134000DBFF050EF4CFDBFFD9500E0FE96E000E68
:10135000DA20EA6E010EEE1801E1ED5015E1040EFF
:10136000DBCF02F0050EDBCF03F0020EDB50025C98
:10137000006E030EDB500358016E060E00C0DBFF4B
:10138000070E01C0DBFF78D0040EDBCF02F0050EA4
:10139000DBCF03F0020EDB50025C006E030EDB506D
:1013A0000358016E080E00C0DBFF090E01C0DBFF11
:1013B000080EDBCF00F0090EDBCF01F0060EDBCF0D
:1013C00002F0070EDBCF03F003500118E8AE02D0A5
:1013D000013404D00050025C0150035827E2080E8B
:1013E000DBCF02F0090EDBCF03F0060EDB50025C10
:1013F000006E070EDB500358016E0A0E00C0DBFFC3
:101400000B0E01C0DBFF0A0EDBCF00F00B0EDBCFB3
:1014100001F0013404E20050C308000E015405E25B
:101420000C0EDB2A0D0E01E3DB2A26D0060EDBCFE5
:1014300002F0070EDBCF03F0080EDB50025C006EFB
:10144000090EDB500358016E0A0E00C0DBFF0B0EC5
:1014500001C0DBFF0A0EDBCF00F00B0EDBCF01F08B
:10146000013404E20050C308000E015405E20C0EE2
:10147000DB2A0D0E01E3DB2A040EDBCF1EF0050E86
:10148000DBCF1FF0020E1EC0DBFF030E1FC0DBFF11
:101490002BD70C0EDBCF1EF00D0EDBCF1FF00E0E88
:1014A000DBCF23F00F0EDBCF24F044EC15F01EC091
:1014B00000F01FC001F0640E0102F3CF01F0640ED2
:1014C0000002F3CF00F0F450012600C01EF001C06E
:1014D0001FF02DEC14F01DC09CF01EC09DF01FC02D
:1014E0009EF020C09FF076EC1BF0000901E0FBD7D6
:1014F000010EE66E67EC1AF0E55276EC1BF000097F
:1015000001E0FBD76E0EE66E3FEC1CF0E55276EC88
:101510001BF0000901E0FBD7BF0EE66E2D0EE66E54
:10152000000EE66E06EC19F0E552E552E552100E9B
:10153000E15C02E2E16AE552E16EE552E5CFDAFFF5
:10154000E7CFD9FF1200D9CFE6FFDACFE6FFE1CF30
:10155000D9FFE2CFDAFF0A0EE12402E3E168E652A6
:10156000E16E00019C6B9D6B9E6B9F6B9CC0E6FFC8
:101570009DC0E6FF9EC0E6FF9FC0E6FFBA0EE66E86
:101580002D0EE66E000EE66ED9CFE6FFDACFE6FF4F
:101590001FEC18F0006E090EE15C02E2E16AE55210
:1015A000E16E005076EC1BF0000901E0FBD7010E64
:1015B000E66E67EC1AF0E55276EC1BF0000901E0EC
:1015C000FBD76E0EE66E3FEC1CF0E55276EC1BF09E
:1015D000000901E0FBD7AE0EE66E2D0EE66E000EA2
:1015E000E66E06EC19F0E552E552E55276EC1BF09A
:1015F000000901E0FBD7400EE66EACEC19F0E552B5
:1016000076EC1BF0000901E0FBD76E0EE66E3FECB6
:101610001CF0E552D9CFE6FFDACFE6FF95EC1AF0E1
:10162000E552E552226A236AC80E246E410E256EE9
:101630009CC01DF09DC01EF09EC01FF09FC020F0FA
:10164000C6EC15F0010A22E176EC1BF0000901E07E
:10165000FBD7140EE66EACEC19F0E55276EC1BF0FD
:10166000000901E0FBD76E0EE66E3FEC1CF0E55280
:101670009B0EE66E2D0EE66E000EE66E06EC19F081
:10168000E552E552E55295DC31D02FD076EC1BF0D7
:10169000000901E0FBD7140EE66EACEC19F0E55240
:1016A00076EC1BF0000901E0FBD76E0EE66E3FEC16
:1016B0001CF0E5528F0EE66E2D0EE66E000EE66E05
:1016C00006EC19F0E552E552E552C80EE66E00EC64
:1016D0001CF0E552C80EE66E00EC1CF0E552640EFC
:1016E000E66E00EC1CF0E55201D000D00A0EE15C81
:1016F00002E2E16AE552E16EE552E5CFDAFFE7CFBB
:10170000D9FF120000D0120013D8000068D80000E2
:1017100069D800007CD8000090D80000CDD9000026
:101720000001A86BA96B0001AA6BAB6B00D0120083
:10173000D9CFE6FFDACFE6FFE1CFD9FFE2CFDAFF7C
:101740000A0EE12402E3E168E652E16E98C0E6FF8A
:1017500099C0E6FF1A0EE66E2E0EE66E000EE66EDD
:10176000D9CFE6FFDACFE6FF1FEC18F0006E070EC8
:10177000E15C02E2E16AE552E16E005076EC1BF0BA
:10178000000901E0FBD7010EE66E67EC1AF0E552A6
:1017900076EC1BF0000901E0FBD76E0EE66E3FEC25
:1017A0001CF0E55276EC1BF0000901E0FBD77B0E44
:1017B000E66E2D0EE66E000EE66E06EC19F0E552B2
:1017C000E552E55200D00A0EE15C02E2E16AE55220
:1017D000E16EE552E5CFDAFFE7CFD9FF1200949230
:1017E0008292120016EC00F0CC0EE66E47EC00F090
:1017F000E5528282440EE66E47EC00F0E552640E3C
:10180000E66E00EC1CF0E552829200D0120016EC5D
:1018100000F0CC0EE66E47EC00F0E552BE0EE66E30
:1018200047EC00F0E55286EC00F00001A16F86EC79
:1018300000F00001A06F00D0120005D80000E6D82B
:10184000000000D01200D9CFE6FFDACFE6FFE1CFEB
:10185000D9FFE2CFDAFFE652E652E652E652020E36
:10186000DB6A010EF36E030EF3CFDBFF0F0E0001F8
:10187000A115DF6E040EF36E020EDBCFF4FFF35002
:10188000F45C01E390D00A0E006E00C024F0DFCFBC
:101890001FF07BEC1CF0010E1BC0DBFF010EDBCF49
:1018A00008F008C01FF01AEC14F01DC004F01EC0B0
:1018B00005F01FC006F020C007F00D6A0E6A800E0A
:1018C0000F6E3D0E106E030EDBCF15F015C01FF02E
:1018D0001AEC14F01DC011F01EC012F01FC013F05E
:1018E00020C014F011C022F012C023F013C024F065
:1018F00014C025F00DC01DF00EC01EF00FC01FF06B
:1019000010C020F0D7EC14F01DC009F01EC00AF082
:101910001FC00BF020C00CF009C022F00AC023F059
:101920000BC024F00CC025F004C01DF005C01EF053
:1019300006C01FF007C020F0D7EC14F01DC000F067
:101940001EC001F01FC002F020C003F0A3C022F0AF
:10195000A4C023F0A5C024F0A6C025F000C01DF04F
:1019600001C01EF002C01FF003C020F041EC14F0D3
:101970001DC0A3F01EC0A4F01FC0A5F020C0A6F09B
:10198000030EDB50020D030EF3CFDBFF0A0E006ED9
:1019900000C024F0DFCF1FF07BEC1CF01F50DF6E87
:1019A000020EDB2A67D7226A236A7A0E246E440E5F
:1019B000256EA3C01DF0A4C01EF0A5C01FF0A6C0D8
:1019C00020F0D7EC14F097EC15F01EC0AAF01FC061
:1019D000ABF0AAC0AAF0ABC0ABF0640E236E246AD1
:1019E000AAC01EF0ABC01FF017EC1CF01EC0AAF07E
:1019F0001FC0ABF0040EE15C02E2E16AE552E16E69
:101A0000E552E5CFDAFFE7CFD9FF1200D9CFE6FFE5
:101A1000DACFE6FFE1CFD9FFE2CFDAFFE652E652B6
:101A2000E652E652DF6A010EDB6A020EDB6A010E45
:101A3000F36E030EF3CFDBFF0001A1390F0BE76E4E
:101A4000010EE7CFDBFF020EDBCFE6FF010EDB501E
:101A5000E552E710E76E020EE7CFDBFF0001A05171
:101A6000100D010EF3CFDBFF020EDBCFE6FF010E00
:101A7000DB50E552E710E76E020EE7CFDBFF000117
:101A8000A751000807E2020EDB507F0AE76E020E44
:101A9000E7CFDBFF020EDB500001A86FA96B00D07F
:101AA000040EE15C02E2E16AE552E16EE552E5CF47
:101AB000DAFFE7CFD9FF1200D9CFE6FFDACFE6FF92
:101AC000E1CFD9FFE2CFDAFF460EE12402E3E1687D
:101AD000E652E16E0001A75100081DE2AAC0E6FF30
:101AE000ABC0E6FFA8C0E6FFA9C0E6FF6F0EE66E3A
:101AF0002D0EE66E000EE66ED9CFE6FFDACFE6FFDA
:101B00001FEC18F0006E090EE15C02E2E16AE5529A
:101B1000E16E00501CD0AAC0E6FFABC0E6FFA8C033
:101B2000E6FFA9C0E6FF630EE66E2D0EE66E000E20
:101B3000E66ED9CFE6FFDACFE6FF1FEC18F0006EB5
:101B4000090EE15C02E2E16AE552E16E005076ECDA
:101B50001BF0000901E0FBD7010EE66E67EC1AF0FE
:101B6000E55276EC1BF0000901E0FBD7E66AACEC2D
:101B700019F0E552D9CFE6FFDACFE6FF95EC1AF07F
:101B8000E552E552C80EE66E00EC1CF0E552640E1C
:101B9000E66E00EC1CF0E55200D0460EE15C02E27D
:101BA000E16AE552E16EE552E5CFDAFFE7CFD9FF12
:101BB000120076EC1BF0000901E0FBD7010EE66E87
:101BC00067EC1AF0E55276EC1BF0000901E0FBD758
:101BD0006E0EE66E3FEC1CF0E55276EC1BF0000951
:101BE00001E0FBD7540EE66E2D0EE66E000EE66E9B
:101BF00006EC19F0E552E552E552C80EE66E00EC2F
:101C00001CF0E552640EE66E00EC1CF0E55200D0CC
:021C10001200C0
:0E1C120045EC13F0FB0EDBCFF3FFDB06F350C7
:101C200000090AE093EC13F0FA0EFEEC13F0F3E176
:101C3000011CF1E1010E01D0000E74EF13F045EC30
:101C400013F03B0EE12402E3E168E652E16E010E7F
:101C5000DB6A020EDB6AF90EDBCFF6FFFA0EDBCF92
:101C6000F7FFFB0EDBCFF8FF0800F550DF6EDF500B
:101C700002E198EF12F0250EDF5C02E08BEF12F02C
:101C8000030EDB6A040EDB6A050EDB6A060EDB6AF6
:101C9000070EDB6AADEC12F02D0EDF5C0CE02B0EB4
:101CA000DF5C09E0200EDF5C06E0230EDF5C03E072
:101CB000300EDF5C1AE1DF50300A14E0130A0FE047
:101CC000030A0AE00B0A05E0060AE4E1030EDB80E2
:101CD000E1D7030EDB82DED7030EDB84DBD7030EF6
:101CE000DB86D8D7030EDB88D5D72A0EDF5C1BE155
:101CF000A9EC12F0F7EC12F010E0030EDB801E6886
:101D00001F68130EDBCF23F0140EDBCF24F06AEC38
:101D100015F0040E1CC0DBFF03D0130EE0EC12F034
:101D2000ADEC12F00BD0090EDB6A4EEC13F003E0C1
:101D3000C2EC13F0FAD7090EE0EC12F0030EDBB0A0
:101D4000DB982E0EDF5C1BE1ADEC12F02A0EDF5C9F
:101D50000BE1A9EC12F0F7EC12F003E1130E32ECF8
:101D600013F0ADEC12F00BD0090EDB6A4EEC13F061
:101D700003E0C2EC13F0FAD7090E32EC13F0680E50
:101D8000DF5C07E1ADEC12F0680EDF5C1DE1030ED5
:101D900018D0740EDF5C17E07A0EDF5C14E0480E9A
:101DA000DF5C06E0540EDF5C03E05A0EDF5C02E10C
:101DB000020E07D06C0EDF5C03E06A0EDF5C04E10C
:101DC000010E85EC13F0C9DBDF506E0A01E17FD311
:101DD0001E0A01E192D1200A01E18FD13F0A01E1FF
:101DE00049D11A0A01E146D10D0A01E143D1200A85
:101DF00001E140D13A0A01E13DD1200A01E13AD1A5
:101E0000260A01E135D10D0A01E132D11A0A01E1B8
:101E1000D9D0200A4AE0300A1FE0460A0EE0250A1F
:101E200001E083D3D950F90FE96EFF0EDA20EA6E94
:101E3000010EEE5E000EEE5AEE5A93EC13F0250EF4
:101E4000E66E95DB03E1011C01E169D38FEC13F031
:101E500001E26BD3DB2A69D3080EDB6A040EDB5088
:101E6000010806E2040EDB0457EC13F0DB508BDBB9
:101E7000080EDB5009E0030EDB50010B05E172DBBD
:101E800001E04DD3080EDB6A64DBEFCFDFFF07EC28
:101E900014F003E1011C01E142D38FEC13F001E3E4
:101EA000DB2A60DB01E141D33AD3070EDB500208A5
:101EB0000FE1D3EC13F0030E9AEC13F00E0EEECFFD
:101EC000DBFF0F0EEECFDBFF100EEECFDBFF20D0DF
:101ED000F70EDBCF03F0F80EDBCF04F0020E035E4B
:101EE000000E045AF70E03C0DBFFF80E04C0DBFF40
:101EF00003C0E9FF04C0EAFF8AEC13F0026A0E0E89
:101F000000C0DBFF0F0E01C0DBFF100E02C0DBFFC5
:101F10000E0EDBCFE6FF0F0EDBCFE6FF100EDBCFA2
:101F2000E6FF87EC19F0E552E552E552130E1DC0AD
:101F3000DBFF140E1EC0DBFF060EDB5005E0130EA8
:101F4000CEEC13F001E26ADBF2EC13F002E2130EC6
:101F500037DBB5EC13F006E0040ECEEC13F002E232
:101F6000050E2EDB030EDBB005D0FCDA01E0D7D284
:101F7000080EDB6A090EDB6A0E0EDBCFF6FF0F0ED2
:101F8000DBCFF7FF100EDBCFF8FF0800F550DF6E58
:101F9000DF5014E0F8EC13F011E207EC14F003E169
:101FA000011C01E1BCD2BBDB01E3DB2A090EDB2A09
:101FB000D9500E0FE96E000ECBDBE7D7D3DA01E183
:101FC000B4D2ADD2C6DA110EEECFDBFF120EEDCFDA
:101FD000DBFF110EDBCFE6FF120EDBCFE6FF79EC65
:101FE00019F0E552E552130EF3CFDBFF140EF4CFD8
:101FF000DBFF060EDB5004E0130ED0DB01E20EDB4C
:10200000F2EC13F002E2130EDBDAAFDB05E0040EB4
:10201000C5DB02E2050ED4DA030EDBB005D0A2DA8E
:1020200001E07DD2080EDB6A090EDB6A110EDBCF00
:10203000E9FF120EDBCFEAFFEFCFDFFFDF5014E046
:10204000D7DB12E2E4DB03E1011C01E168D267DBCC
:1020500001E3DB2A090EDB2A110EDB2ADBCFE9FFC5
:10206000120EE8E3DB2AE6D77DDA01E15ED257D231
:10207000030EDB8E070EDB0410E195DB040E5ADB4A
:102080000A0EEECFDBFF0B0EEECFDBFF0C0EEECF1A
:10209000DBFF0D0EEECFDBFF6CD0070EDB5003082D
:1020A0002CE1030EDBAE0DD0B2DA020E76DAEFCF02
:1020B00000F0016A026A036A00AE39D00168026862
:1020C00035D0F70EDBCF01F0F80EDBCF02F0020EB9
:1020D000015E000E025AF70E01C0DBFFF80E02C0CF
:1020E000DBFF01C0E9FF02C0EAFFEFCF00F00A0EFC
:1020F00000C0DBFF0B0EDB6A38D0070EDB50020896
:1021000009E1030EDBAE04D059DB02AE10D00ED0D5
:1021100055DB0DD0030EDBAE12D079DA020E3DDABC
:10212000F9DA026A036A01AE02D002680368E2DAF1
:102130000C0E02C0DBFF0D0E03C0DBFF1AD0F70E42
:10214000DBCF02F0F80EDBCF03F0020E025E000ED2
:10215000035AF70E02C0DBFFF80E03C0DBFF02C01C
:10216000E9FF03C0EAFFD6DAC5DA0C0EDB6A0D0E12
:10217000DB6A060EDB5005E1010EF36E050EF3CFB0
:10218000DBFF150EDB6A160EDB6AD950370F006EC7
:10219000000EDA20016E390E00C0DBFF3A0E01C0DE
:1021A000DBFF380EDB6A080EDB6A0A0EAEDADF50A0
:1021B000780A12E0200A10E0280A0CE0200A0AE05F
:1021C0003F0A06E00D0A02E0200A08E1020E05D0EF
:1021D000080E03D0080EDF26100E97DA030EDBBEC2
:1021E00002D0DB92DB94DB50800B24E08ADAD890BB
:1021F000030EEB50000A08E6000EEE5C000EEE58EF
:10220000000EEE58000EEE5815E213DA216822682F
:102210002368246841EC19F00A0E18C0DBFF0B0E8E
:1022200019C0DBFF0C0E1AC0DBFF0D0E1BC0DBFF5D
:102230002D0E08D0030EDBA202D02B0E03D0DBA4A0
:1022400008D0200EF36E170EF3CFDBFF150EDB2A3E
:1022500002D0170EDB6A050EDB5003E1B7D901E1AE
:1022600089D0280E006E390E016E000E026E070E28
:10227000DBCF03F0046A056A066A03C021F004C0DC
:1022800022F005C023F006C024F0D3D914EC1BF0D3
:1022900000501824F36E01501920F46E02501A20D9
:1022A000F86EF4CFF7FFF3CFF6FF0800090EF5CF75
:1022B000DBFF580EDF5C0FE1610EF36E090E7BD978
:1022C0000AE3200E006E090EDBCFE7FF0050E75E49
:1022D000090EE7CFDBFF070EDBCF00F0016A026AD1
:1022E000036A0FDA00C021F001C022F002C023F01F
:1022F00003C024F0EECF1CF0EECF1DF0EECF1EF0A9
:10230000EFCF1FF014EC1BF01FC0EDFF1EC0EDFF60
:102310001DC0EDFF1CC0EFFF390EDBCFE9FFDB0670
:102320003A0EDBCFEAFF01E2DB06090EDBCFEFFF5F
:10233000150EDB2A4BD995E1030EDBA61DD06F0EDF
:10234000DF5C06E1C1D918E3150EDB285BDA14D097
:10235000780EDF5C09E0580EDF5C06E0620EDF5CA1
:1023600003E0420EDF5C08E1020EF36E160EF3CFBF
:10237000DBFF02D0150EDB6A030EDB50100B0EE004
:10238000040EDBCF00F0050EDB50D880005406E2CF
:10239000060EDB5003E1040EDB5034DA95D90AE275
:1023A000050EDBCFE7FF150EDB50E75E050EE7CF2E
:1023B000DBFF02D0050EDB6A040EDBCF00F0160E49
:1023C00045D9D880005414E2160EDBCFE6FF150E77
:1023D000DBCFE6FF040EDBCFE6FF050EDB50E55258
:1023E000E75CE552D880E754E552D880E7545FD9DE
:1023F000030EDB50010B0BE1080EDB5008E0B2D8F6
:1024000001E08DD0080EDB50BED8080EDB6A170E37
:10241000DB5007E088D9170EF1D903E1011C01E177
:102420007ED0160EDB5016E07ED9300EE66E9FD8B9
:1024300002E1011C74E077D9DFCFE6FFC4EC18F0AD
:10244000E552E552E552F4CF01F00001F31C02E140
:10245000011C65E0050EDBCF00F0160EDB50D880C6
:10246000005409E2050EDBCFE7FF160EDB50E75EF6
:10247000050EE7CFDBFF300EE66E050ECBD94FE140
:10248000390EDB2ADBCFE9FF3A0E01E3DB2ADBCF93
:10249000EAFF090EEFCFDBFFDB500EE044D9090E57
:1024A000ADD902E1011C3BE0390EDB2ADBCFE9FFAD
:1024B0003A0EEDE3DB2AEBD755D831E1160EDBCF30
:1024C000E6FF080EC3D8E552E7245DD82ED0070EEC
:1024D000DB50030A1CE0010A14E0030A07E07BD981
:1024E000DBCFEEFF020EDBCFEDFF1FD0F5D8056A84
:1024F00003AE02D0046805682CD8BCD805C0EEFF36
:1025000014D0EAD803BE046824D8B4D80ED063D956
:10251000DBCFEFFF0AD07BD905E1011C03E1F368B3
:10252000F46810D0FCD801E3DB2A79D934EF0EF03F
:10253000010EDBCF00F0020EDBCF01F000C0F3FF95
:1025400001C0F4FF3B0EE15C02E2E16AE552E16E9C
:10255000CBD029D9020E9AEF13F061D90800F550BB
:10256000DF6E1200200EE66E080E0AEF14F0C4ECC7
:1025700018F0E552E552E552F3CF00F0F4CF01F048
:102580000001F31C1200006E016AD950010F4DD9F1
:102590000050EE260150ED221200045E000E055A96
:1025A000F70E04C0DBFFF80E05C0DBFF04C0E9FF37
:1025B00005C0EAFF1200DBCFF4FFF350F45C120019
:1025C000DB50E76E040EE7CFDBFF12000A0EDBCF15
:1025D00000F00B0EDBCF01F00C0EDBCF02F00D0E86
:1025E000DBCF03F000500110021003101200130E95
:1025F000EECFDBFF140EEDCFDBFF130EDBCF00F0D1
:10260000140EDBCF01F00001800E01141200F70E52
:10261000DBCF04F0F80EDBCF05F01200050EDB5027
:10262000E66ED950130F01D9E552E750EE6EED6A10
:1026300012000A0EDBCF1CF00B0EDBCF1DF00C0ED0
:10264000DBCF1EF00D0EDBCF1FF01200DBCFE6FF5D
:10265000150EDBCFE6FF050EDB50E552E724E55211
:10266000E7241200DB50CED8010EF36E060EF3CF36
:10267000DBFF1200EE50EFCFEAFFE96E02C0EEFF83
:1026800003C0EEFF04C0EEFF1200D9CFE6FFDACFA1
:10269000E6FFE1CFD9FFE2CFDAFF1200DFCFE6FF9E
:1026A000E66A2DEC1CF0E552E552F3501200E76E9D
:1026B000080EE7CFDBFF1200EECF00F0EECF01F007
:1026C000EFCF02F0036A1200050EDBCF00F0150E0B
:1026D000DB50D88000541200010EDBCF02F0020E56
:1026E000DBCF03F0046A1200E552E5CFDAFFE7CF53
:1026F000D9FF12000A0E00C0DBFF0B0E01C0DBFF8A
:102700001200D9500A0F15EF14F0F36E070EF3CF35
:10271000DBFF1200EECF00F0EFCF01F01200010E50
:10272000DB2A020E1200FC0EDBCFE6FFFD0EDBCF34
:10273000E6FF1200005E000E015AF70E00C0DBFF3C
:10274000F80E01C0DBFF00C0E9FF01C0EAFF120084
:10275000DA20EA6EEF2AEECFF6FF000EEF22EECF80
:10276000F7FFEF22EECFF8FF1200040EDBCFE6FFFB
:10277000130EDB50E552E75C9ADFDB5004DF060EF8
:10278000DB501200090EDB500A0DF350DF24D00F8E
:10279000E76E090EE7CFDBFFADEF12F0DB50F36E13
:1027A000050EDBEF12F0F70EDBCF00F0F80EDBCFFB
:1027B00001F01200DFCFE6FFB7EF12F028DF030EC3
:1027C000ECDE5CEF13F009EC0EF0E552E552E55259
:1027D000E55200091200BDDEEE50EFCFEAFFE96ED0
:1027E000010E1200130EDB50F36E040EDBEF12F03D
:1027F000040EDB50F36E090EDBEF12F0DBCFE6FFC9
:10280000B7EF12F0E76E050EE7CFDBFF12008BDFAC
:10281000DAEF13F0DBCFE6FF86DFE3EF13F0D950FA
:10282000F90FE96EFF0EA8EF13F0E96E000EDA2043
:04283000EA6E12003A
:0C283400179E05D0179E1FAE02D01F6C2F
:10284000178E1FC019F0186A296A286A860E1A6E38
:102850001B6A40EF16F0179E08D0179E1FAE05D0DA
:102860001E6C1F1EE86A1F22178E1FC019F01EC0A3
:1028700018F0296A286A8E0E1A6E1B6A40EF16F04D
:10288000257E176A7CEC16F094EC16F017B624EF50
:1028900016F017A20AD017AA03D017BE24EF16F01D
:1028A00017A430EF16F02DEF16F017AA05D017ACCD
:1028B00030EF16F02DEF16F017A00AD017A808D0A9
:1028C00017BE04D017A402D039EF16F03DEF16F072
:1028D000286A1B6A2550205C276E10E31DC029F072
:1028E0001EC018F01FC019F020C026F022C01DF035
:1028F00023C01EF024C01FF0173A09D022C029F0CF
:1029000023C018F024C019F025C026F0276C179EAC
:1029100017BC178E26C01AF017B06CEF16F01A0EFF
:1029200027606CEF16F01A6A206A17A408D01D6C95
:102930001E1E1F1E201EE86A1E221F22202217AC08
:1029400008D0296C181E191E1A1EE86A18221922AE
:102950001A221C6A275207E020341F321E321D3211
:102960001C32272EF9D71D5029261E5018221F5021
:10297000192220501A221CC028F0179E1AAE0BD024
:10298000286C291E181E191E1A1EE86A29221822F0
:1029900019221A22178E1AA006D0D880193218329E
:1029A00029322832262A26C01AF040EF16F0176A7C
:1029B0007CEC16F094EC16F017B624EF16F017A284
:1029C00005D017B824EF16F02BEF16F017AA05D094
:1029D00017B024EF16F02BEF16F017B002D017A89F
:1029E00002D037EF16F01B6A255020241A6EE86AD1
:1029F0001B227E0E1A5EE86A1B5A286A296A186A28
:102A0000196A24501F02F4CF19F0F3CF18F02350A5
:102A10001F02F3502926F4501822000E19222450C8
:102A20001E02F3502926F4501822000E19222250BB
:102A30001F02F3502826F4502922000E18221922D2
:102A400023501E02F3502826F4502922000E18228B
:102A5000192224501D02F3502826F4502922000E7A
:102A60001822192222501E02F4502826000E292274
:102A70001822192223501D02F4502826000E292264
:102A80001822192240EF16F0166A24AE4DEF15F009
:102A9000236C241EE86A2422161E1FAE55EF15F083
:102AA0001E6C1F1EE86A1F22161E17EC1CF01FBEAC
:102AB00065EF15F016AE000C1E6C1F1EE86A1F2293
:102AC0001A6C1B1EE86A1B22000C16BE5CEF15F088
:102AD0001788FF0C1FC029F01EC028F01E502302CB
:102AE000F4CF1DF0F3CF1CF01F502402F4CF1FF0E1
:102AF000F3CF1EF02302F3501D26F4501E22E86A85
:102B00001F2228502402F3501D26F4501E22E86A8A
:102B10001F2224AE90EF15F028501E5E29501F5A38
:102B200029AE000C23501E5E24501F5A000C176A59
:102B30007CEC16F017B6A1EF15F017A20ED017B463
:102B400005D07F0E1F6EFF0E1E6E1FD0800E1F6EF3
:102B50001E6A1BD01F6A1E6A18D017B0FBD78F0ED3
:102B60002060EDD77E0E2064F5D78E0E205C05E048
:102B7000D8901F321E32202AF8D717A406D01E6C18
:102B80001F1EE86A1F221FAEE5D71200CFEC15F01A
:102B900017B6000C17B0000C17B4000C010C176A24
:102BA0007CEC16F094EC16F017B6120017AE08D0B5
:102BB00017A004D017A802D0178012001790120097
:102BC0002550205C0BE124501F5C08E123501E5C63
:102BD00005E122501D5C02E117801200D8A002D04E
:102BE000178E10D0205025C020F0256E1F5024C015
:102BF0001FF0246E1E5023C01EF0236E1D5022C0F5
:102C00001DF0226E2550205C10E0FF0F09E01790A8
:102C100017B403D017AE1784120017AE1794120022
:102C2000252AD89024322332223222501D5E23508E
:102C30001E5A24501F5A1FBEEAD7D8901D361E3682
:102C40001F36202EF8D7C8D77F0E206EFF0E1F6EBE
:102C50001E6E1D6E12007F0E17BEFF0E206E02D07C
:102C60007F0E206E800E1F6E1E6A1D6AF3D717AE90
:102C700004D0800E206E1F6AF7D7206A1F6AF4D72F
:102C80001950181029102810F8E01BBEF0D719BEF3
:102C90000CD01A501B10EBE0D89028362936183685
:102CA00019361A06D8A01B06F2D71B50D4E11A28F1
:102CB000D2E028AE11D07F0E281402E129A00CD05A
:102CC000292AE86A1822192207E3D8801932183213
:102CD00029321A2A1A28BFE01A50C9E029C01DF06B
:102CE00018C01EF019341F6E1A30206E1F32209E3D
:102CF00017BE208E2AEF16F01F36203602E3178407
:102D0000177E06E11780206A1F6A1E6A1D6A12007C
:102D1000202803E0D8801F321200D8901F3202E131
:102D200017821200178612002436253602E3178C0C
:102D3000177E06E11788256A246A236A226A120030
:102D4000252803E0D88024321200D8902432EAE10A
:042D5000178A1200CC
:0C2D5400436F6D696E6720736F6F6E2E09
:102D60002E2E0054656D703A25642E256443005460
:102D7000656D703A2D25642E25640047657474696D
:102D80006E672054656D7065726174757265004878
:102D9000525620697320676F6F640048525620694D
:102DA0007320544F4F204849474821212100596F33
:102DB00075722048525620697300256920250070DD
:102DC00061737300506C6561736520776169742E5F
:102DD0002E2E005261746520697320676F6F640046
:102DE0005261746520697320544F4F204C4F572116
:102DF0002121005261746520697320544F4F20488F
:102E000049474821212100596F7572206865617218
:102E10007420726174652069730025692062706D89
:102E20000050726F63657373696E672E2E2E0030CB
:102E3000302000303120003032200030332000308C
:102E4000342000303520003036200030372000306C
:102E5000382000303920003130200031312000315D
:102E60003220003133200031342000313520004C35
:102E7000656176652066696E67657220666F7200AF
:102E80003100322E2E00332E2E2E005374617274B8
:102E9000696E6720696E20006865617274207261D6
:102EA00074652073656E736F727300506C61636537
:102EB0002066696E676572206265747765656E006D
:102EC0006461746100746F20616363657373207360
:102ED000746F72656400507265737320616E79203F
:102EE0006E756D626572004420746F2074616B654D
:102EF0002054656D70004320746F2074616B6520F1
:102F0000485256004220746F2074616B6520476CF4
:102F100075636F7365004120746F2074616B652069
:102F2000486561727420526174650048656172740D
:102F300052617465204D6F6E69746F720057656CD5
:102F4000636F6D6520746F2047726F75702047271F
:022F500073000C
:0E2F5200D9CFE6FFDACFE6FFE1CFD9FFE2CF1D
:102F6000DAFF0F0E83160F0E951695949592959095
:102F70008C948C928C90A6EC01F0300EE66E67EC8F
:102F80001AF0E552050EE66E00EC1CF0E552300E2C
:102F9000E66E67EC1AF0E552010EE66E00EC1CF0EE
:102FA000E552320EE66E67EC1AF0E55276EC1BF055
:102FB000000901E0FBD776EC1BF0000901E0FBD72C
:102FC000FD0EDBCFE6FF67EC1AF0E55276EC1BF066
:102FD000000901E0FBD7080EE66E67EC1AF0E55237
:102FE00076EC1BF0000901E0FBD70F0EE66E67ECF4
:102FF0001AF0E55276EC1BF0000901E0FBD7010E58
:10300000E66E67EC1AF0E55276EC1BF0000901E081
:10301000FBD7130EE66E67EC1AF0E55276EC1BF068
:10302000000901E0FBD7800EE66EACEC19F0E5522A
:0E30300000D0E552E5CFDAFFE7CFD9FF12005E
:02303E00D9CFE8
:10304000E6FFDACFE6FFE1CFD9FFE2CFDAFFE652C3
:10305000E652E652E652D950F90F006EFF0EDA2022
:10306000016E020E00C0DBFF030E01C0DBFF020E8B
:10307000DBCFE6FF030EDBCFE6FFF90EDBCFE6FF8B
:10308000FA0EDBCFE6FFFB0EDBCFE6FFD950FC0FDD
:10309000E66EFF0EDA20E66E1FEC0EF0006E070EF5
:1030A000E15C02E2E16AE552E16E0050F3CFDEFF3F
:1030B000F4CFDDFFFC0EDBCFE9FFFD0EDBCFEAFF37
:1030C000EF6ADECF00F0DDCF01F000C0F3FF01C0FA
:1030D000F4FF040EE15C02E2E16AE552E16EE552C2
:0A30E000E5CFDAFFE7CFD9FF1200B9
:0630EA001E0EF66E000E42
:1030F000F76E000EF86E00010900F550B16F09007F
:10310000F550B26F03E1B16701D03DD00900F55031
:10311000AC6F0900F550AD6F0900F550AE6F0900B6
:103120000900F550E96E0900F550EA6E0900090042
:103130000900F550AF6F0900F550B06F09000900A4
:10314000F6CFB3F0F7CFB4F0F8CFB5F0ACC0F6FFE0
:10315000ADC0F7FFAEC0F8FF0001AF5302E1B053BE
:1031600007E00900F550EE6EAF07F8E2B007F9D7B7
:10317000B3C0F6FFB4C0F7FFB5C0F8FF0001B10758
:08318000000EB25BBFD7120084
:08318800D9CFE6FFDACFE6FF24
:10319000E1CFD9FFE2CFDAFFFB0EDBCF00F0FC0E70
:1031A000DBCF01F00001800E01141AE1FB0EDBCF32
:1031B000E9FFFC0EDBCFEAFFEECFF3FFEDCFF4FF2C
:1031C000EE2A000EEF22F3CFE9FFF4CFEAFFFD0E67
:1031D000DBCFEFFFEF50016AF36E01C0F4FF10D0B8
:1031E000FB0EDB50FE0806E1FD0EDBCFE6FF6DECCB
:1031F0001CF005D0FD0EDBCFE6FF03EC00F0E5523E
:0C320000E552E5CFDAFFE7CFD9FF12005E
:04320C00D9CFE6FF31
:10321000DACFE6FFE1CFD9FFE2CFDAFFFB0EDBCF5B
:10322000F6FFFC0EDBCFF7FFFD0EDBCFF8FF08004B
:10323000F55020E076EC1BF0000901E0FBD7FB0E17
:10324000DBCFF6FFFC0EDBCFF7FFFD0EDBCFF8FF89
:103250000800F550E66E39EC1AF0E552D950FB0F34
:10326000E96EFF0EDA20EA6EEE2A000EEE22000E64
:10327000EE22D4D700D0E552E5CFDAFFE7CFD9FF71
:0232800012003A
:0E3282001C502102F3CF18F0F4CF19F02202F5
:10329000F3501926000EF4201A6E1C502302F3502E
:1032A0001A26000EF4201B6E1C502402F3501B261D
:1032B0001D502102F3501926F4501A22000E1B2231
:1032C0001D502202F3501A26F4501B221D502302D7
:1032D000F3501B261E502102F3501A26F4501B22D5
:1032E0001E502202F3501B261F502102F3501B26B2
:0232F0001200CA
:0E32F200FE0EE3CFE9FFFF0EE3CFEAFFF36A23
:10330000F46AEE5203E0F34AF42AFBD71200FF0EF0
:10331000E3CFF8FFE552FF0EE3CFF7FFE552FF0ED4
:10332000E3CFF6FFE552E66AE66AE66A0900F5527F
:1033300009E0FD0EE32A05E1FE0EE32A02E1FF0E9D
:10334000E32AF4D7FD0EE3CF1DF0FE0EE3CF1EF00F
:08335000FF0EE3CF1FF0120095
:08335800D9CFE6FFDACFE6FF52
:10336000E1CFD9FFE2CFDAFF0F0E95160F0E8316CD
:10337000FD0EDB508009F00B83128C948C9292EC42
:1033800001F08C8092EC01F08C900F0E8316FD0EF4
:10339000DB38F00BF00B831292EC01F08C8092EC96
:1033A00001F08C90F00E951200D0E552E5CFDAFFD7
:0633B000E7CFD9FF120077
:0A33B600D9CFE6FFDACFE6FFE1CF42
:1033C000D9FFE2CFDAFF0F0E95160F0E8316FD0E12
:1033D000DB504009F00B83128C948C9292EC01F03C
:1033E0008C8092EC01F08C900F0E8316FD0EDB3872
:1033F000F00BF00B831292EC01F08C8092EC01F058
:103400008C90F00E951200D0E552E5CFDAFFE7CFB1
:04341000D9FF1200CE
:0C341400D9CFE6FFDACFE6FFE1CFD9FF09
:10342000E2CFDAFFE652E652FC0EDBCF00F0FD0EF3
:10343000DBCF01F0060ED89000360136E804FBE140
:1034400000C0DEFF01C0DDFF010EDB50BE6EDF50AD
:10345000E840E8403F0B300B006ECF0EBD1400106B
:10346000BD6EE552E552E552E5CFDAFFE7CFD9FF71
:02347000120048
:0E347200D9CFE6FFDACFE6FFE1CFD9FFE2CFF8
:10348000DAFF0F0E95160F0E8316FD0EDB50F00BB4
:1034900083128C828C9492EC01F08C8092EC01F07F
:1034A0008C900F0E8316FD0EDB38F00BF00B8312A1
:1034B00092EC01F08C8092EC01F08C90F00E951261
:0E34C00000D0E552E5CFDAFFE7CFD9FF1200CA
:0234CE00D9CF54
:1034D000E6FFDACFE6FFE1CFD9FFE2CFDAFF0F0E4A
:1034E00095160F0E8316FD0EDB50F00B83128C9495
:1034F0008C9292EC01F08C8092EC01F08C900F0E8B
:103500008316FD0EDB38F00BF00B831292EC01F00A
:103510008C8092EC01F08C90F00E951200D0E55268
:0A352000E5CFDAFFE7CFD9FF120074
:06352A00D9CFE6FFDACF65
:10353000E6FFE1CFD9FFE2CFDAFFFC0EDBCFE9FFF8
:10354000FD0EDBCFEAFFEF5016E076EC1BF0000932
:1035500001E0FBD7FC0EDBCFE9FFFD0EDBCFEAFF7E
:10356000EF50E66E39EC1AF0E552FC0EDB2AFD0E48
:1035700001E3DB2AE2D700D0E552E5CFDAFFE7CF5F
:04358000D9FF12005D
:0C358400D9CFE6FFDACFE6FFE1CFD9FF98
:10359000E2CFDAFFE6528C848C8292EC01F08C80D0
:1035A00092EC01F0F00E8314DF6E8C9092EC01F03F
:1035B0008C8092EC01F083380F0B0F0BDF128C9094
:1035C0008C928C94DF5000D0E552E552E5CFDAFFC3
:0635D000E7CFD9FF120055
:0A35D600D9CFE6FFDACFE6FFE1CF20
:1035E000D9FFE2CFDAFFE6528C848C9292EC01F0A4
:1035F0008C8092EC01F0F00E8314DF6E8C9092ECD4
:1036000001F08C8092EC01F083380F0B0F0BDF126E
:103610008C908C947F0EDF1400D0E552E552E5CFFC
:08362000DAFFE7CFD9FF120029
:083628001B6A1A6A196A186A8C
:10363000200EE76ED8901C361D361E361F36183603
:1036400019361A361B362150185C2250195823504F
:103650001A5824501B5809E32150185E2250195A59
:1036600023501A5A24501B5A1C2AE72EE4D7120062
:10367000D9CFE6FFDACFE6FFE1CFD9FFE2CFDAFF1D
:10368000E652E652CE50DF6E010ECFCFDBFFDECF2B
:1036900000F0DDCF01F000C0F3FF01C0F4FFE55200
:0E36A000E552E552E5CFDAFFE7CFD9FF120081
:0236AE00D9CF72
:1036B000E6FFDACFE6FFE1CFD9FFE2CFDAFFE6524D
:1036C000E652D650DF6E010ED7CFDBFFDECF00F023
:1036D000DDCF01F000C0F3FF01C0F4FFE552E55279
:0C36E000E552E5CFDAFFE7CFD9FF12007A
:0436EC008C848C92AC
:1036F00092EC01F08C8092EC01F083AE0BD08C90B8
:1037000092EC01F08C8092EC01F08C908C94010E84
:103710000BD00AD08C9092EC01F08C8092EC01F0EE
:0A3720008C908C94000E00D0120073
:06372A00D9CFE6FFDACF63
:10373000E6FFE1CFD9FFE2CFDAFFE652E652FC0E18
:10374000DBCFDEFFDBCFDDFF010EDB50CF6EDF50C6
:10375000CE6EE552E552E552E5CFDAFFE7CFD9FF6D
:02376000120055
:0E376200D9CFE6FFDACFE6FFE1CFD9FFE2CF05
:10377000DAFFE652E652FC0EDBCFDEFFDBCFDDFFE9
:10378000010EDB50D76EDF50D66EE552E552E552A2
:0A379000E5CFDAFFE7CFD9FF120002
:06379A00D9CFE6FFDACFF3
:1037A000E6FFE1CFD9FFE2CFDAFFFD0EDB50FB0BE6
:1037B000CA6ECC6A9E92FD0EDBAE02D09D8201D015
:1037C0009D92CA84E552E5CFDAFFE7CFD9FF120018
:1037D000D9CFE6FFDACFE6FFE1CFD9FFE2CFDAFFBC
:1037E0000C0EBD129494CA94FD0EDB50CB6ECA84AD
:1037F000E552E5CFDAFFE7CFD9FF1200949412002B
:10380000FF0EE3502B6EEF0E01D0F30EE76EE72EA6
:1038100007EF1CF00C0E2A6EE76AE72E0DEF1CF086
:0E3820002A2E0CEF1CF02B2E05EF1CF01200D0
:02382E001B6A13
:103830001A6A100EE76ED8901E361F361A361B36DF
:1038400023501A5C24501B5805E323501A5E245061
:0A3850001B5A1E2AE72EF0D71200C3
:06385A00F36AF46AFF0EA0
:10386000E124E96EFF0EE220EA6EED6607D02F0E2E
:0E387000EF6404D03A0EEF6001D0F32A12008C
:02387E00FF0E3B
:10388000E3502B6E480E01D04C0EE76EE72EFED7AC
:0E389000E76AE72EFED72B2EF7D700001200B6
:02389E00000E1A
:1038A000F36E00EE00F0060E01D81200EA6002D0BE
:0E38B000EE6AFCD7F350E9601200EE6AFCD716
:0238BE0015EE05
:1038C00000F025EE00F0F86A179C75EC18F0A0ECFB
:0A38D0001CF087EC01F0FBD712009A
:0638DA00FF0EE350ACBA42
:1038E00004D0AF6AAB8EAC8A949CACA2FED7AD6E0E
:0638F000F36EF46A120001
:0A38F6001B6A080EE76ED8901F361B
:103900001B3624501B5C02E31B6E1F2AE72EF7D7E1
:023910001200A3
:0E391200FF0EE350E84E1200000000D000D07F
:0839200000D0E82EFAD71200D6
:083928003031323334353637FB
:09393000383961626364656600C8
:06393A00D59EF29A120076
:02394000120073
:0E394200000000000000000000000000000077
:0839500000000000000000006F
:020000040030CA
:0100010022DC
:010003000EEE
:010006008178
:00000001FF
