:020000040000FA
:0600000017EF18F01200DA
:020006001200E6
:06000800CEEF00F0120033
:02000E00B190AF
:04001000A0921200A8
:04001400BD6A1200AF
:0600180028EF01F01200C8
:02001E000100DF
:0C002000B8300000960000001000000046
:04002C00D9CFE6FF43
:10003000DACFE6FFE1CFD9FFE2CFDAFFE652E652B0
:10004000DE6ADD6A94868B969496300EE66E41ECFD
:1000500018F0E5529486180EE66E41EC18F0E55261
:100060008250080B080A01E0010E006E016A00BE12
:10007000016800C0DEFF01C0DDFFDF5000D0E552A7
:10008000E552E552E5CFDAFFE7CFD9FF1200D9CF2D
:10009000E6FFDACFE6FFE1CFD9FFE2CFDAFFE652A3
:1000A000DF6ADFCF00F0080EE76E0018E8AE02D07E
:1000B000E73402D0E750005C22E28B969496010E62
:1000C000E66E41EC18F0E552FD0EDB50010BE8B096
:1000D0009486E8A09496050EE66E41EC18F0E55281
:1000E0009486020EE66E41EC18F0E552FD0EDB4000
:1000F0007F0BE76EFD0EE7CFDBFFDF2AD2D7E5529D
:10010000E552E5CFDAFFE7CFD9FF1200D9CFE6FFFE
:10011000DACFE6FFE1CFD9FFE2CFDAFFE652E652CF
:10012000DF6A010EDB6A010EDBCF00F0080EE76E1E
:100130000018E8AE02D0E73402D0E750005C24E2B9
:100140008B9694960000000094860000000000004A
:10015000000000000000000000008250080B01E0D9
:10016000010EF36E010EDB5004E0D890F336E80682
:10017000FCE1F350DF10DF6E050EE66E41EC18F087
:10018000E552010EDB2ACFD7DF5000D0E552E55211
:10019000E552E5CFDAFFE7CFD9FF1200E9CFE4FF60
:1001A000EACFE4FFF6CFE4FFF7CFE4FFF8CFE4FFB8
:1001B000F5CFE4FFF3CFE4FFF4CFE4FFFACFE4FFA1
:1001C000FBCFE4FF00EE16F0140EE80403E3EECFDD
:1001D000E4FFFBD700EE00F0160EE80403E3EECFD9
:1001E000E4FFFBD7E652F2A40CD0D59ECD90F2945A
:1001F00058EC18F055EC18F0010E0001966F976B53
:1002000001D000D0E55200EE15F0160EE80403E32D
:10021000E5CFEDFFFBD700EE29F0140EE80403E371
:10022000E5CFEDFFFBD7E5CFFBFFE5CFFAFFE5CF4D
:10023000F4FFE5CFF3FFE5CFF5FFE5CFF8FFE5CF1E
:10024000F7FFE5CFF6FFE5CFEAFFE5CFE9FF1100C5
:10025000D8CFE4FFE0CFE4FFE46EE9CFE4FFEACFDC
:10026000E4FFF6CFE4FFF7CFE4FFF8CFE4FFF5CFEC
:10027000E4FFF3CFE4FFF4CFE4FFFACFE4FFFBCFDA
:10028000E4FF00EE16F0140EE80403E3EECFE4FF03
:10029000FBD700EE00F0160EE80403E3EECFE4FF18
:1002A000FBD7E652F0A004D08972D8D90000F090B4
:1002B000E55200EE15F0160EE80403E3E5CFEDFF7E
:1002C000FBD700EE29F0140EE80403E3E5CFEDFFC1
:1002D000FBD7E5CFFBFFE5CFFAFFE5CFF4FFE5CF96
:1002E000F3FFE5CFF5FFE5CFF8FFE5CFF7FFE5CF6B
:1002F000F6FFE5CFEAFFE5CFE9FFE550E5CFE0FF08
:10030000E5CFD8FF10002CD800009AD900009290B9
:100310008980929289824BD8000012000000000070
:1003200000000000000000000000000000000000CD
:1003300000000000000000000000000000000000BD
:1003400000D012000F0EE66EF7EC17F0E55200D069
:100350001200050EE66EF7EC17F0E55200D0120021
:10036000956A836A2B0EE66E80EC13F0E5522EEC54
:1003700017F0000901E0FBD70D0EE66E3EEC16F01B
:10038000E5522EEC17F0000901E0FBD7130EE66EE4
:100390003EEC16F0E5522EEC17F0000901E0FBD719
:1003A000010EE66E3EEC16F0E55200D012002EEC87
:1003B00017F0000901E0FBD7010EE66E3EEC16F0E7
:1003C000E5522EEC17F0000901E0FBD76E0EE66E49
:1003D000F7EC17F0E5522EEC17F0000901E0FBD71F
:1003E000EA0EE66E260EE66E000EE66EDDEC14F00A
:1003F000E552E552E5522EEC17F0000901E0FBD77B
:10040000140EE66E83EC15F0E5522EEC17F00009A1
:1004100001E0FBD76E0EE66EF7EC17F0E552D80E52
:10042000E66E260EE66E000EE66EDDEC14F0E5528A
:10043000E552E552C80EE66EB8EC17F0E552897049
:100440002EEC17F0000901E0FBD7010EE66E3EEC42
:1004500016F0E5522EEC17F0000901E0FBD76E0E06
:10046000E66EF7EC17F0E5522EEC17F0000901E00C
:10047000FBD7C30EE66E260EE66E000EE66EDDECD2
:1004800014F0E552E552E5522EEC17F0000901E0B8
:10049000FBD7400EE66E83EC15F0E5522EEC17F01C
:1004A000000901E0FBD76E0EE66EF7EC17F0E5529F
:1004B000B10EE66E260EE66E000EE66EDDEC14F072
:1004C000E552E552E5522EEC17F0000901E0FBD7AA
:1004D000140EE66E83EC15F0E5522EEC17F00009D1
:1004E00001E0FBD76E0EE66EF7EC17F0E5522EEC4E
:1004F00017F0000901E0FBD7A30EE66E260EE66EAC
:10050000000EE66EDDEC14F0E552E552E5522EECFD
:1005100017F0000901E0FBD7540EE66E83EC15F0EE
:10052000E5522EEC17F0000901E0FBD76E0EE66EE7
:10053000F7EC17F0E552940EE66E260EE66E000E0E
:10054000E66EDDEC14F0E552E552E552C80EE66EBB
:10055000B8EC17F0E552640EE66EB8EC17F0E55211
:1005600089702EEC17F0000901E0FBD7010EE66E52
:100570003EEC16F0E5522EEC17F0000901E0FBD737
:100580006E0EE66EF7EC17F0E5522EEC17F0000950
:1005900001E0FBD7830EE66E260EE66E000EE66ED9
:1005A000DDEC14F0E552E552E5522EEC17F00009AF
:1005B00001E0FBD7400EE66E83EC15F0E5522EEC21
:1005C00017F0000901E0FBD76E0EE66EF7EC17F0AE
:1005D000E552720EE66E260EE66E000EE66EDDEC5D
:1005E00014F0E552E552E5522EEC17F0000901E057
:1005F000FBD7140EE66E83EC15F0E5522EEC17F0E7
:10060000000901E0FBD76E0EE66EF7EC17F0E5523D
:100610002EEC17F0000901E0FBD76D0EE66E260EFA
:10062000E66E000EE66EDDEC14F0E552E552E552A2
:10063000C80EE66EB8EC17F0E5528970B8D6120015
:1006400093829488948A948C948EF18AF09CF0869C
:10065000F090D08EF28EF28C00D01200D9CFE6FF4F
:10066000DACFE6FFE1CFD9FFE2CFDAFFE652E6527A
:10067000DE6ADD6AF00E8214DE6EDD6ADECF00F027
:10068000DDCF01F0040ED89001320032E804FBE126
:1006900000C0DEFF01C0DDFFD9CFE9FFDACFEAFFFE
:1006A000EE50ED1003E12DEC08F0B2D0D9CFE9FF08
:1006B000DACFEAFF010EEE1801E1ED5003E12DEC77
:1006C00008F0A6D0D9CFE9FFDACFEAFF020EEE1884
:1006D00001E1ED5003E12DEC08F09AD0D9CFE9FF0C
:1006E000DACFEAFF030EEE1801E1ED5002E198D8EF
:1006F0008FD0D9CFE9FFDACFEAFF040EEE1801E17F
:10070000ED5003E12DEC08F083D0D9CFE9FFDACF2B
:10071000EAFF050EEE1801E1ED5003E12DEC08F0C3
:1007200077D0D9CFE9FFDACFEAFF060EEE1801E164
:10073000ED5003E12DEC08F06BD0D9CFE9FFDACF13
:10074000EAFF070EEE1801E1ED5003E12FEC08F08F
:100750005FD0D9CFE9FFDACFEAFF080EEE1801E14A
:10076000ED5003E12DEC08F053D0D9CFE9FFDACFFB
:10077000EAFF090EEE1801E1ED5003E12DEC08F05F
:1007800047D0D9CFE9FFDACFEAFF0A0EEE1801E130
:10079000ED5003E12DEC08F03BD0D9CFE9FFDACFE3
:1007A000EAFF0B0EEE1801E1ED5003E135EC08F025
:1007B0002FD0D9CFE9FFDACFEAFF0C0EEE1801E116
:1007C000ED5003E12DEC08F023D0D9CFE9FFDACFCB
:1007D000EAFF0D0EEE1801E1ED5003E12DEC08F0FB
:1007E00017D0D9CFE9FFDACFEAFF0E0EEE1801E1FC
:1007F000ED5003E12DEC08F00BD0D9CFE9FFDACFB3
:10080000EAFF0F0EEE1801E1ED5002E14DEC08F0A9
:10081000E552E552E552E5CFDAFFE7CFD9FF120006
:1008200015D8000038D80000E8D800000001965123
:10083000971101E100000001966B976B29DA000027
:1008400073DA000069DB000000D0120055EC18F0EC
:10085000CD8ECD82CD9ACD98CD96CD84000EE66E0C
:10086000E66A4DEC17F0E552E55258EC18F0D59CCD
:10087000D58AD598D596D584D582D5801D0EE66EBD
:100880001B0EE66E69EC17F0E552E552F184F29426
:10089000F28A00D012002EEC17F0000901E0FBD71D
:1008A000010EE66E3EEC16F0E5522EEC17F0000954
:1008B00001E0FBD76E0EE66EF7EC17F0E5522EEC7A
:1008C00017F0000901E0FBD7580EE66E260EE66E23
:1008D000000EE66EDDEC14F0E552E552E5522EEC2A
:1008E00017F0000901E0FBD7400EE66E83EC15F02F
:1008F000E5522EEC17F0000901E0FBD76E0EE66E14
:10090000F7EC17F0E552450EE66E260EE66E000E89
:10091000E66EDDEC14F0E552E552E552C80EE66EE7
:10092000B8EC17F0E5522EEC17F0000901E0FBD708
:10093000140EE66E83EC15F0E5522EEC17F000096C
:1009400001E0FBD76E0EE66EF7EC17F0E5522EECE9
:1009500017F0000901E0FBD7380EE66E260EE66EB2
:10096000000EE66EDDEC14F0E552E552E5522EEC99
:1009700017F0000901E0FBD7540EE66E83EC15F08A
:10098000E5522EEC17F0000901E0FBD76E0EE66E83
:10099000F7EC17F0E552330EE66E260EE66E000E0B
:1009A000E66EDDEC14F0E552E552E552640EE66EBB
:1009B000B8EC17F0E5522F0EE66E260EE66E000E2E
:1009C000E66EDDEC14F0E552E552E552640EE66E9B
:1009D000B8EC17F0E5522D0EE66E260EE66E000E10
:1009E000E66EDDEC14F0E552E552E552640EE66E7B
:1009F000B8EC17F0E55200D012002EEC17F0000909
:100A000001E0FBD7010EE66E3EEC16F0E5522EEC4F
:100A100017F0000901E0FBD76E0EE66EF7EC17F059
:100A2000E5522EEC17F0000901E0FBD71C0EE66E34
:100A3000260EE66E000EE66EDDEC14F0E552E55291
:100A4000E5522EEC17F0000901E0FBD7400EE66EF0
:100A500083EC15F0E5522EEC17F0000901E0FBD70E
:100A60006E0EE66EF7EC17F0E552D58ECD80180EBF
:100A7000E66E260EE66E000EE66EDDEC14F0E55234
:100A8000E552E552640EE66EB8EC17F0E552140E2E
:100A9000E66E260EE66E000EE66EDDEC14F0E55214
:100AA000E552E552640EE66EB8EC17F0E552100E12
:100AB000E66E260EE66E000EE66EDDEC14F0E552F4
:100AC000E552E552640EE66EB8EC17F0E5520C0EF6
:100AD000E66E260EE66E000EE66EDDEC14F0E552D4
:100AE000E552E552640EE66EB8EC17F0E552080EDA
:100AF000E66E260EE66E000EE66EDDEC14F0E552B4
:100B0000E552E552640EE66EB8EC17F0E552040EBD
:100B1000E66E260EE66E000EE66EDDEC14F0E55293
:100B2000E552E552640EE66EB8EC17F0E5522EEC95
:100B300017F0000901E0FBD7140EE66E83EC15F008
:100B4000E552000EE66E260EE66E000EE66EDDEC59
:100B500014F0E552E552E552640EE66EB8EC17F07B
:100B6000E552FC0EE66E250EE66E000EE66EDDEC3E
:100B700014F0E552E552E552640EE66EB8EC17F05B
:100B8000E552F80EE66E250EE66E000EE66EDDEC22
:100B900014F0E552E552E552640EE66EB8EC17F03B
:100BA000E552F40EE66E250EE66E000EE66EDDEC06
:100BB00014F0E552E552E552640EE66EB8EC17F01B
:100BC000E552F00EE66E250EE66E000EE66EDDECEA
:100BD00014F0E552E552E552640EE66EB8EC17F0FB
:100BE000E552EC0EE66E250EE66E000EE66EDDECCE
:100BF00014F0E552E552E552640EE66EB8EC17F0DB
:100C0000E5522EEC17F0000901E0FBD7540EE66E1A
:100C100083EC15F0E552E80EE66E250EE66E000E4A
:100C2000E66EDDEC14F0E552E552E552640EE66E38
:100C3000B8EC17F0E552E40EE66E250EE66E000EF7
:100C4000E66EDDEC14F0E552E552E552640EE66E18
:100C5000B8EC17F0E552E00EE66E250EE66E000EDB
:100C6000E66EDDEC14F0E552E552E552640EE66EF8
:100C7000B8EC17F0E552DC0EE66E250EE66E000EBF
:100C8000E66EDDEC14F0E552E552E55200D01200BC
:100C9000D9CFE6FFDACFE6FFE1CFD9FFE2CFDAFF27
:100CA000E652E652DE6ADD6A2EEC17F0000901E03A
:100CB000FBD7010EE66E3EEC16F0E5522EEC17F077
:100CC000000901E0FBD76E0EE66EF7EC17F0E55277
:100CD0002EEC17F0000901E0FBD7CE0EE66E250ED4
:100CE000E66E000EE66EDDEC14F0E552E552E552DC
:100CF0000FEC17F0F3CFDEFFF4CFDDFF040E1E6E16
:100D00001F6ADECF23F0DDCF24F0C8EC11F01CC049
:100D100098F01DC099F000D0E552E552E552E5CFBC
:100D2000DAFFE7CFD9FF1200D9CFE6FFDACFE6FF2F
:100D3000E1CFD9FFE2CFDAFF0A0EE12402E3E16856
:100D4000E652E16E98C0E6FF99C0E6FFC70EE66E78
:100D5000250EE66E000EE66ED9CFE6FFDACFE6FF8F
:100D6000F6EC13F0006E070EE15C02E2E16AE55278
:100D7000E16E00502EEC17F0000901E0FBD7010EE8
:100D8000E66E3EEC16F0E5522EEC17F0000901E09D
:100D9000FBD76E0EE66EF7EC17F0E5522EEC17F06F
:100DA000000901E0FBD7B40EE66E250EE66E000EDC
:100DB000E66EDDEC14F0E552E552E5522EEC17F04C
:100DC000000901E0FBD7400EE66E83EC15F0E5521A
:100DD0002EEC17F0000901E0FBD76E0EE66EF7EC83
:100DE00017F0E552D9CFE6FFDACFE6FF6CEC16F04C
:100DF000E552E5520001993504E298516408000E6D
:100E0000995522E22EEC17F0000901E0FBD7140EF1
:100E1000E66E83EC15F0E5522EEC17F0000901E0C8
:100E2000FBD76E0EE66EF7EC17F0E552A00EE66EFD
:100E3000250EE66E000EE66EDDEC14F0E552E5528E
:100E4000E552B3D85DD05BD03C0E000199AF02D023
:100E5000D89003D0985D000E995922E22EEC17F03D
:100E6000000901E0FBD7140EE66E83EC15F0E552A5
:100E70002EEC17F0000901E0FBD76E0EE66EF7ECE2
:100E800017F0E5528D0EE66E250EE66E000EE66E4C
:100E9000DDEC14F0E552E552E55240D831D02FD0C8
:100EA0002EEC17F0000901E0FBD7140EE66E83EC80
:100EB00015F0E5522EEC17F0000901E0FBD76E0E9D
:100EC000E66EF7EC17F0E552800EE66E250EE66E44
:100ED000000EE66EDDEC14F0E552E552E552C80E68
:100EE000E66EB8EC17F0E552C80EE66EB8EC17F0F7
:100EF000E552640EE66EB8EC17F0E55201D000D072
:100F00000A0EE15C02E2E16AE552E16EE552E5CFEC
:100F1000DAFFE7CFD9FF120000D01200D9CFE6FFE9
:100F2000DACFE6FFE1CFD9FFE2CFDAFFE652E652B1
:100F3000DE6ADD6A060EE66E85EC17F0E5521C0EE1
:100F4000E66E010EE66EE1EC15F0E552E552949482
:100F5000DE6ADD6ADECF00F0DDCF01F0D89001500F
:100F600004E6060E005C000E015816E28D0EE66ED9
:100F7000A0EC17F0E5521E0EE66EB8EC17F0E55245
:100F80000AEC00F01E0EE66EB8EC17F0E552DF2A10
:100F9000010E01E3DB2ADED700D0E552E552E5522F
:100FA000E5CFDAFFE7CFD9FF1200D9CFE6FFDACFDE
:100FB000E6FFE1CFD9FFE2CFDAFFE652E652DE6A82
:100FC000DD6A060EE66E85EC17F0E5521C0EE66E45
:100FD000010EE66EE1EC15F0E552E5529494DE6AFE
:100FE000DD6ADECF00F0DDCF01F0D890015004E6DD
:100FF000060E005C000E015827E2580EE66EA0ECCB
:1010000017F0E5520A0EE66EB8EC17F0E5520AEC5E
:1010100000F00A0EE66EB8EC17F0E552580EE66ED8
:10102000A0EC17F0E5520A0EE66EB8EC17F0E552A8
:101030000AEC00F01E0EE66EB8EC17F0E552DF2A5F
:10104000010E01E3DB2ACDD700D0E552E552E5528F
:10105000E5CFDAFFE7CFD9FF120000D0120003D8A6
:10106000000000D0120000D0120005D8000013D8F4
:10107000000000D0120007EC00F0CD8ECD82CD9A9A
:10108000CD98CD96CD84000EE66EE66A4DEC17F055
:10109000E552E552120000D0120013D8000068D8C3
:1010A000000069D800007CD8000090D80000CDD99D
:1010B00000000001A26BA36B0001A46BA56B00D024
:1010C0001200D9CFE6FFDACFE6FFE1CFD9FFE2CFBA
:1010D000DAFF0A0EE12402E3E168E652E16E98C00D
:1010E000E6FF99C0E6FFC70EE66E250EE66E000E1F
:1010F000E66ED9CFE6FFDACFE6FFF6EC13F0006E2E
:10110000070EE15C02E2E16AE552E16E00502EEC6E
:1011100017F0000901E0FBD7010EE66E3EEC16F079
:10112000E5522EEC17F0000901E0FBD76E0EE66EDB
:10113000F7EC17F0E5522EEC17F0000901E0FBD7B1
:101140006C0EE66E250EE66E000EE66EDDEC14F01B
:10115000E552E552E55200D00A0EE15C02E2E16A96
:10116000E552E16EE552E5CFDAFFE7CFD9FF120095
:1011700094928292120016EC00F0CC0EE66E47ECD0
:1011800000F0E5528282440EE66E47EC00F0E55234
:10119000640EE66EB8EC17F0E552829200D01200B1
:1011A00016EC00F0CC0EE66E47EC00F0E552BE0EF9
:1011B000E66E47EC00F0E55286EC00F000019B6F14
:1011C00086EC00F000019A6F00D0120005D80000F4
:1011D000E6D8000000D01200D9CFE6FFDACFE6FF54
:1011E000E1CFD9FFE2CFDAFFE652E652E652E6520D
:1011F000020EDB6A010EF36E030EF3CFDBFF0F0E60
:1012000000019B15DF6E040EF36E020EDBCFF4FFC0
:10121000F350F45C01E390D00A0E006E00C024F09D
:10122000DFCF1FF033EC18F0010E1BC0DBFF010E07
:10123000DBCF08F008C01FF0B3EC10F01DC004F0C5
:101240001EC005F01FC006F020C007F00D6A0E6A30
:10125000800E0F6E3D0E106E030EDBCF15F015C025
:101260001FF0B3EC10F01DC011F01EC012F01FC033
:1012700013F020C014F011C022F012C023F013C0EC
:1012800024F014C025F00DC01DF00EC01EF00FC0DC
:101290001FF010C020F05BEC11F01DC009F01EC063
:1012A0000AF01FC00BF020C00CF009C022F00AC0E9
:1012B00023F00BC024F00CC025F004C01DF005C0C5
:1012C0001EF006C01FF007C020F05BEC11F01DC03F
:1012D00000F01EC001F01FC002F020C003F09DC04E
:1012E00022F09EC023F09FC024F0A0C025F000C0D3
:1012F0001DF001C01EF002C01FF003C020F0C5ECBD
:1013000010F01DC09DF01EC09EF01FC09FF020C0B9
:10131000A0F0030EDB50020D030EF3CFDBFF0A0E2D
:10132000006E00C024F0DFCF1FF033EC18F01F5028
:10133000DF6E020EDB2A67D7226A236A7A0E246EDA
:10134000440E256E9DC01DF09EC01EF09FC01FF074
:10135000A0C020F05BEC11F0F5EC11F01EC0A4F081
:101360001FC0A5F0A4C0A4F0A5C0A5F0640E236E14
:10137000246AA4C01EF0A5C01FF0CFEC17F01EC059
:10138000A4F01FC0A5F0040EE15C02E2E16AE552A0
:10139000E16EE552E5CFDAFFE7CFD9FF1200D9CFF2
:1013A000E6FFDACFE6FFE1CFD9FFE2CFDAFFE65280
:1013B000E652E652E652DF6A010EDB6A020EDB6A93
:1013C000010EF36E030EF3CFDBFF00019B390F0B11
:1013D000E76E010EE7CFDBFF020EDBCFE6FF010E6B
:1013E000DB50E552E710E76E020EE7CFDBFF0001AE
:1013F0009A51100D010EF3CFDBFF020EDBCFE6FF9B
:10140000010EDB50E552E710E76E020EE7CFDBFF7F
:101410000001A151000807E2020EDB507F0AE76ECF
:10142000020EE7CFDBFF020EDB500001A26FA36BC1
:1014300000D0040EE15C02E2E16AE552E16EE552A1
:10144000E5CFDAFFE7CFD9FF1200D9CFE6FFDACF39
:10145000E6FFE1CFD9FFE2CFDAFF460EE12402E357
:10146000E168E652E16E0001A15100081DE2A4C04E
:10147000E6FFA5C0E6FFA2C0E6FFA3C0E6FF600E40
:10148000E66E250EE66E000EE66ED9CFE6FFDACFE9
:10149000E6FFF6EC13F0006E090EE15C02E2E16A91
:1014A000E552E16E00501CD0A4C0E6FFA5C0E6FFE7
:1014B000A2C0E6FFA3C0E6FF540EE66E250EE66E60
:1014C000000EE66ED9CFE6FFDACFE6FFF6EC13F0BA
:1014D000006E090EE15C02E2E16AE552E16E005045
:1014E0002EEC17F0000901E0FBD7010EE66E3EEC92
:1014F00016F0E5522EEC17F0000901E0FBD7E66A82
:1015000083EC15F0E552D9CFE6FFDACFE6FF6CECBD
:1015100016F0E552E552C80EE66EB8EC17F0E5524B
:10152000640EE66EB8EC17F0E55200D0460EE15CB2
:1015300002E2E16AE552E16EE552E5CFDAFFE7CF7C
:04154000D9FF1200BD
:0C154400DEEC0FF0FB0EDBCFF3FFDB064C
:10155000F35000090AE02CEC10F0FA0E97EC10F0B2
:10156000F3E1011CF1E1010E01D0000E0DEF10F0CE
:10157000DEEC0FF03B0EE12402E3E168E652E16E9F
:10158000010EDB6A020EDB6AF90EDBCFF6FFFA0E04
:10159000DBCFF7FFFB0EDBCFF8FF0800F550DF6E67
:1015A000DF5002E131EF0FF0250EDF5C02E024EFA7
:1015B0000FF0030EDB6A040EDB6A050EDB6A060E13
:1015C000DB6A070EDB6A46EC0FF02D0EDF5C0CE0E9
:1015D0002B0EDF5C09E0200EDF5C06E0230EDF5CF3
:1015E00003E0300EDF5C1AE1DF50300A14E0130A2A
:1015F0000FE0030A0AE00B0A05E0060AE4E1030E25
:10160000DB80E1D7030EDB82DED7030EDB84DBD782
:10161000030EDB86D8D7030EDB88D5D72A0EDF5C16
:101620001BE142EC0FF090EC0FF010E0030EDB80BA
:101630001E681F68130EDBCF23F0140EDBCF24F0DF
:10164000C8EC11F0040E1CC0DBFF03D0130E79ECC4
:101650000FF046EC0FF00BD0090EDB6AE7EC0FF051
:1016600003E05BEC10F0FAD7090E79EC0FF0030EF3
:10167000DBB0DB982E0EDF5C1BE146EC0FF02A0E90
:10168000DF5C0BE142EC0FF090EC0FF003E1130E86
:10169000CBEC0FF046EC0FF00BD0090EDB6AE7EC59
:1016A0000FF003E05BEC10F0FAD7090ECBEC0FF073
:1016B000680EDF5C07E146EC0FF0680EDF5C1DE1B1
:1016C000030E18D0740EDF5C17E07A0EDF5C14E0B6
:1016D000480EDF5C06E0540EDF5C03E05A0EDF5C70
:1016E00002E1020E07D06C0EDF5C03E06A0EDF5CE5
:1016F00004E1010E1EEC10F0C9DBDF506E0A01E1BF
:101700007FD31E0A01E192D1200A01E18FD13F0A65
:1017100001E149D11A0A01E146D10D0A01E143D1A3
:10172000200A01E140D13A0A01E13DD1200A01E15C
:101730003AD1260A01E135D10D0A01E132D11A0A66
:1017400001E1D9D0200A4AE0300A1FE0460A0EE043
:10175000250A01E083D3D950F90FE96EFF0EDA2094
:10176000EA6E010EEE5E000EEE5AEE5A2CEC10F010
:10177000250EE66E95DB03E1011C01E169D328EC3F
:1017800010F001E26BD3DB2A69D3080EDB6A040E8A
:10179000DB50010806E2040EDB04F0EC0FF0DB5036
:1017A0008BDB080EDB5009E0030EDB50010B05E17B
:1017B00072DB01E04DD3080EDB6A64DBEFCFDFFFA5
:1017C000A0EC10F003E1011C01E142D328EC10F081
:1017D00001E3DB2A60DB01E141D33AD3070EDB50A2
:1017E00002080FE16CEC10F0030E33EC10F00E0E5B
:1017F000EECFDBFF0F0EEECFDBFF100EEECFDBFFE9
:1018000020D0F70EDBCF03F0F80EDBCF04F0020E92
:10181000035E000E045AF70E03C0DBFFF80E04C08F
:10182000DBFF03C0E9FF04C0EAFF23EC10F0026A0B
:101830000E0E00C0DBFF0F0E01C0DBFF100E02C05A
:10184000DBFF0E0EDBCFE6FF0F0EDBCFE6FF100E49
:10185000DBCFE6FF5EEC15F0E552E552E552130EE4
:101860001DC0DBFF140E1EC0DBFF060EDB5005E0C3
:10187000130E67EC10F001E26ADB8BEC10F002E271
:10188000130E37DB4EEC10F006E0040E67EC10F0A0
:1018900002E2050E2EDB030EDBB005D0FCDA01E020
:1018A000D7D2080EDB6A090EDB6A0E0EDBCFF6FF1D
:1018B0000F0EDBCFF7FF100EDBCFF8FF0800F5505F
:1018C000DF6EDF5014E091EC10F011E2A0EC10F0AC
:1018D00003E1011C01E1BCD2BBDB01E3DB2A090E01
:1018E000DB2AD9500E0FE96E000ECBDBE7D7D3DA37
:1018F00001E1B4D2ADD2C6DA110EEECFDBFF120E8B
:10190000EDCFDBFF110EDBCFE6FF120EDBCFE6FFE4
:1019100050EC15F0E552E552130EF3CFDBFF140E39
:10192000F4CFDBFF060EDB5004E0130ED0DB01E248
:101930000EDB8BEC10F002E2130EDBDAAFDB05E01E
:10194000040EC5DB02E2050ED4DA030EDBB005D0CF
:10195000A2DA01E07DD2080EDB6A090EDB6A110E05
:10196000DBCFE9FF120EDBCFEAFFEFCFDFFFDF5067
:1019700014E0D7DB12E2E4DB03E1011C01E168D2F1
:1019800067DB01E3DB2A090EDB2A110EDB2ADBCF42
:10199000E9FF120EE8E3DB2AE6D77DDA01E15ED249
:1019A00057D2030EDB8E070EDB0410E195DB040E2D
:1019B0005ADB0A0EEECFDBFF0B0EEECFDBFF0C0E79
:1019C000EECFDBFF0D0EEECFDBFF6CD0070EDB5052
:1019D00003082CE1030EDBAE0DD0B2DA020E76DA8C
:1019E000EFCF00F0016A026A036A00AE39D00168E5
:1019F000026835D0F70EDBCF01F0F80EDBCF02F036
:101A0000020E015E000E025AF70E01C0DBFFF80E57
:101A100002C0DBFF01C0E9FF02C0EAFFEFCF00F028
:101A20000A0E00C0DBFF0B0EDB6A38D0070EDB505E
:101A3000020809E1030EDBAE04D059DB02AE10D080
:101A40000ED055DB0DD0030EDBAE12D079DA020ECC
:101A50003DDAF9DA026A036A01AE02D0026803686D
:101A6000E2DA0C0E02C0DBFF0D0E03C0DBFF1AD062
:101A7000F70EDBCF02F0F80EDBCF03F0020E025EB2
:101A8000000E035AF70E02C0DBFFF80E03C0DBFFA7
:101A900002C0E9FF03C0EAFFD6DAC5DA0C0EDB6A42
:101AA0000D0EDB6A060EDB5005E1010EF36E050E2E
:101AB000F3CFDBFF150EDB6A160EDB6AD950370F4A
:101AC000006E000EDA20016E390E00C0DBFF3A0E08
:101AD00001C0DBFF380EDB6A080EDB6A0A0EAEDAE5
:101AE000DF50780A12E0200A10E0280A0CE0200AF1
:101AF0000AE03F0A06E00D0A02E0200A08E1020EB1
:101B000005D0080E03D0080EDF26100E97DA030E5C
:101B1000DBBE02D0DB92DB94DB50800B24E08ADA60
:101B2000D890030EEB50000A08E6000EEE5C000EA3
:101B3000EE58000EEE58000EEE5815E213DA21684A
:101B400022682368246818EC15F00A0E18C0DBFF21
:101B50000B0E19C0DBFF0C0E1AC0DBFF0D0E1BC0F5
:101B6000DBFF2D0E08D0030EDBA202D02B0E03D01C
:101B7000DBA408D0200EF36E170EF3CFDBFF150E9B
:101B8000DB2A02D0170EDB6A050EDB5003E1B7D962
:101B900001E189D0980E006E300E016E000E026ECB
:101BA000070EDBCF03F0046A056A066A03C021F062
:101BB00004C022F005C023F006C024F0D3D9EBEC1A
:101BC00016F000501824F36E01501920F46E0250E4
:101BD0001A20F86EF4CFF7FFF3CFF6FF0800090ED6
:101BE000F5CFDBFF580EDF5C0FE1610EF36E090EDF
:101BF0007BD90AE3200E006E090EDBCFE7FF005011
:101C0000E75E090EE7CFDBFF070EDBCF00F0016ACE
:101C1000026A036A0FDA00C021F001C022F002C09C
:101C200023F003C024F0EECF1CF0EECF1DF0EECF7A
:101C30001EF0EFCF1FF0EBEC16F01FC0EDFF1EC043
:101C4000EDFF1DC0EDFF1CC0EFFF390EDBCFE9FF3C
:101C5000DB063A0EDBCFEAFF01E2DB06090EDBCF43
:101C6000EFFF150EDB2A4BD995E1030EDBA61DD045
:101C70006F0EDF5C06E1C1D918E3150EDB285BDAD5
:101C800014D0780EDF5C09E0580EDF5C06E0620ECF
:101C9000DF5C03E0420EDF5C08E1020EF36E160E1D
:101CA000F3CFDBFF02D0150EDB6A030EDB50100B07
:101CB0000EE0040EDBCF00F0050EDB50D8800054A0
:101CC00006E2060EDB5003E1040EDB5034DA95D950
:101CD0000AE2050EDBCFE7FF150EDB50E75E050ECF
:101CE000E7CFDBFF02D0050EDB6A040EDBCF00F08E
:101CF000160E45D9D880005414E2160EDBCFE6FF4D
:101D0000150EDBCFE6FF040EDBCFE6FF050EDB5042
:101D1000E552E75CE552D880E754E552D880E754B5
:101D20005FD9030EDB50010B0BE1080EDB5008E01E
:101D3000B2D801E08DD0080EDB50BED8080EDB6AA9
:101D4000170EDB5007E088D9170EF1D903E1011C0B
:101D500001E17ED0160EDB5016E07ED9300EE66E25
:101D60009FD802E1011C74E077D9DFCFE6FF9BEC3E
:101D700014F0E552E552E552F4CF01F00001F31CF6
:101D800002E1011C65E0050EDBCF00F0160EDB5012
:101D9000D880005409E2050EDBCFE7FF160EDB50BA
:101DA000E75E050EE7CFDBFF300EE66E050ECBD902
:101DB0004FE1390EDB2ADBCFE9FF3A0E01E3DB2AE4
:101DC000DBCFEAFF090EEFCFDBFFDB500EE044D99B
:101DD000090EADD902E1011C3BE0390EDB2ADBCF55
:101DE000E9FF3A0EEDE3DB2AEBD755D831E1160EC9
:101DF000DBCFE6FF080EC3D8E552E7245DD82ED02E
:101E0000070EDB50030A1CE0010A14E0030A07E096
:101E10007BD9DBCFEEFF020EDBCFEDFF1FD0F5D875
:101E2000056A03AE02D0046805682CD8BCD805C08A
:101E3000EEFF14D0EAD803BE046824D8B4D80ED07C
:101E400063D9DBCFEFFF0AD07BD905E1011C03E1A9
:101E5000F368F46810D0FCD801E3DB2A79D9CDEF20
:101E60000AF0010EDBCF00F0020EDBCF01F000C064
:101E7000F3FF01C0F4FF3B0EE15C02E2E16AE552D0
:101E8000E16ECBD029D9020E33EF10F061D90800F2
:101E9000F550DF6E1200200EE66E080EA3EF10F074
:101EA0009BEC14F0E552E552E552F3CF00F0F4CF8D
:101EB00001F00001F31C1200006E016AD950010FFD
:101EC0004DD90050EE260150ED221200045E000EA6
:101ED000055AF70E04C0DBFFF80E05C0DBFF04C097
:101EE000E9FF05C0EAFF1200DBCFF4FFF350F45C1A
:101EF0001200DB50E76E040EE7CFDBFF12000A0E84
:101F0000DBCF00F00B0EDBCF01F00C0EDBCF02F0CD
:101F10000D0EDBCF03F00050011002100310120071
:101F2000130EEECFDBFF140EEDCFDBFF130EDBCF76
:101F300000F0140EDBCF01F00001800E011412003E
:101F4000F70EDBCF04F0F80EDBCF05F01200050E24
:101F5000DB50E66ED950130F01D9E552E750EE6E13
:101F6000ED6A12000A0EDBCF1CF00B0EDBCF1DF06A
:101F70000C0EDBCF1EF00D0EDBCF1FF01200DBCFFF
:101F8000E6FF150EDBCFE6FF050EDB50E552E7243A
:101F9000E552E7241200DB50CED8010EF36E060E98
:101FA000F3CFDBFF1200EE50EFCFEAFFE96E02C085
:101FB000EEFF03C0EEFF04C0EEFF1200D9CFE6FF34
:101FC000DACFE6FFE1CFD9FFE2CFDAFF1200DFCFB1
:101FD000E6FFE66AE5EC17F0E552E552F350120031
:101FE000E76E080EE7CFDBFF1200EECF00F0EECF7A
:101FF00001F0EFCF02F0036A1200050EDBCF00F014
:10200000150EDB50D88000541200010EDBCF02F019
:10201000020EDBCF03F0046A1200E552E5CFDAFFCF
:10202000E7CFD9FF12000A0E00C0DBFF0B0E01C084
:10203000DBFF1200D9500A0FAEEF10F0F36E070E5F
:10204000F3CFDBFF1200EECF00F0EFCF01F0120074
:10205000010EDB2A020E1200FC0EDBCFE6FFFD0EA6
:10206000DBCFE6FF1200005E000E015AF70E00C043
:10207000DBFFF80E01C0DBFF00C0E9FF01C0EAFF93
:102080001200DA20EA6EEF2AEECFF6FF000EEF2202
:10209000EECFF7FFEF22EECFF8FF1200040EDBCFFA
:1020A000E6FF130EDB50E552E75C9ADFDB5004DFFE
:1020B000060EDB501200090EDB500A0DF350DF2430
:1020C000D00FE76E090EE7CFDBFF46EF0FF0DB50D6
:1020D000F36E050E74EF0FF0F70EDBCF00F0F80E85
:1020E000DBCF01F01200DFCFE6FF50EF0FF028DF6B
:1020F000030EECDEF5EF0FF0A2EC0AF0E552E5522C
:10210000E552E55200091200BDDEEE50EFCFEAFFC6
:10211000E96E010E1200130EDB50F36E040E74EF25
:102120000FF0040EDB50F36E090E74EF0FF0DBCFEF
:10213000E6FF50EF0FF0E76E050EE7CFDBFF120072
:102140008BDF73EF10F0DBCFE6FF86DF7CEF10F064
:10215000D950F90FE96EFF0E41EF10F0E96E000E55
:06216000DA20EA6E120015
:0A216600179E05D0179E1FAE02D091
:102170001F6C178E1FC019F0186A296A286A860E0C
:102180001A6E1B6A40EF12F0257E176A7CEC12F083
:1021900094EC12F017B624EF12F017A20AD017AA87
:1021A00003D017BE24EF12F017A430EF12F02DEF7A
:1021B00012F017AA05D017AC30EF12F02DEF12F085
:1021C00017A00AD017A808D017BE04D017A402D0B1
:1021D00039EF12F03DEF12F0286A1B6A2550205C9F
:1021E000276E10E31DC029F01EC018F01FC019F0A3
:1021F00020C026F022C01DF023C01EF024C01FF016
:10220000173A09D022C029F023C018F024C019F0D1
:1022100025C026F0276C179E17BC178E26C01AF013
:1022200017B06CEF12F01A0E27606CEF12F01A6AFA
:10223000206A17A408D01D6C1E1E1F1E201EE86AEF
:102240001E221F22202217AC08D0296C181E191E2E
:102250001A1EE86A182219221A221C6A275207E05D
:1022600020341F321E321D321C32272EF9D71D504A
:1022700029261E5018221F50192220501A221CC035
:1022800028F0179E1AAE0BD0286C291E181E191E96
:102290001A1EE86A2922182219221A22178E1AA059
:1022A00006D0D8801932183229322832262A26C080
:1022B0001AF040EF12F0176A7CEC12F094EC12F076
:1022C00017B624EF12F017A205D017B824EF12F0BA
:1022D0002BEF12F017AA05D017B024EF12F02BEF56
:1022E00012F017B002D017A802D037EF12F01B6A15
:1022F000255020241A6EE86A1B227E0E1A5EE86AB8
:102300001B5A286A296A186A196A24501F02F4CFD6
:1023100019F0F3CF18F023501F02F3502926F45080
:102320001822000E192224501E02F3502926F450C0
:102330001822000E192222501F02F3502826F450B2
:102340002922000E1822192223501E02F35028269B
:10235000F4502922000E1822192224501D02F35095
:102360002826F4502922000E1822192222501E027B
:10237000F4502826000E29221822192223501D026B
:10238000F4502826000E29221822192240EF12F0BC
:102390001FC029F01EC028F01E502302F4CF1DF0EC
:1023A000F3CF1CF01F502402F4CF1FF0F3CF1EF028
:1023B0002302F3501D26F4501E22E86A1F222850E3
:1023C0002402F3501D26F4501E22E86A1F2224AE78
:1023D000EEEF11F028501E5E29501F5A29AE000C56
:1023E00023501E5E24501F5A000C176A7CEC12F01A
:1023F00017B6FFEF11F017A20ED017B405D07F0E5D
:102400001F6EFF0E1E6E1FD0800E1F6E1E6A1BD029
:102410001F6A1E6A18D017B0FBD78F0E2060EDD749
:102420007E0E2064F5D78E0E205C05E0D8901F321A
:102430001E32202AF8D717A406D01E6C1F1EE86A89
:102440001F221FAEE5D712007F0E206EFF0E1F6EFB
:102450001E6E1D6E12007F0E17BEFF0E206E02D084
:102460007F0E206E800E1F6E1E6A1D6AF3D717AE98
:1024700004D0800E206E1F6AF7D7206A1F6AF4D737
:102480001950181029102810F8E01BBEF0D719BEFB
:102490000CD01A501B10EBE0D8902836293618368D
:1024A00019361A06D8A01B06F2D71B50D4E11A28F9
:1024B000D2E028AE11D07F0E281402E129A00CD062
:1024C000292AE86A1822192207E3D880193218321B
:1024D00029321A2A1A28BFE01A50C9E029C01DF073
:1024E00018C01EF019341F6E1A30206E1F32209E45
:1024F00017BE208E2AEF12F01F36203602E3178413
:10250000177E06E11780206A1F6A1E6A1D6A120084
:10251000202803E0D8801F321200D8901F3202E139
:1025200017821200178612002436253602E3178C14
:10253000177E06E11788256A246A236A226A120038
:10254000252803E0D88024321200D8902432EAE112
:04255000178A1200D4
:0C25540054656D703A25642E2564430028
:1025600054656D703A2D25642E256400476574749A
:10257000696E672054656D7065726174757265006F
:102580005261746520697320676F6F6400526174D3
:102590006520697320544F4F204C4F572121210053
:1025A0005261746520697320544F4F204849474851
:1025B00021212100596F7572206865617274207243
:1025C0006174652069730025692062706D00507226
:1025D0006F63657373696E672E2E2E003030200096
:1025E00030312000303220003033200030342000E1
:1025F00030352000303620003037200030382000C1
:1026000030392000313020003131200031322000BB
:102610003133200031342000313520004C656176A3
:10262000652066696E67657220666F7200310032E0
:102630002E2E00332E2E2E005374617274696E6735
:1026400020696E2000686561727420726174652073
:1026500073656E736F727300506C61636520666999
:102660006E676572206265747765656E006461747B
:102670006100746F206163636573732073746F729C
:10268000656400507265737320616E79206E756D9C
:10269000626572004420746F2074616B652054651C
:1026A0006D70004320746F2074616B652048525632
:1026B000004220746F2074616B6520476C75636FF6
:1026C0007365004120746F2074616B6520486561FB
:1026D000727420526174650048656172745261744D
:1026E00065204D6F6E69746F720057656C636F6D16
:0F26F0006520746F2047726F7570204727730045
:10270000D9CFE6FFDACFE6FFE1CFD9FFE2CFDAFF9C
:102710000F0E83160F0E95169594959295908C94A6
:102720008C928C90A2EC01F0300EE66E3EEC16F02E
:10273000E552050EE66EB8EC17F0E552300EE66E87
:102740003EEC16F0E552010EE66EB8EC17F0E552DD
:10275000320EE66E3EEC16F0E5522EEC17F0000954
:1027600001E0FBD72EEC17F0000901E0FBD7FD0ECE
:10277000DBCFE6FF3EEC16F0E5522EEC17F0000939
:1027800001E0FBD7080EE66E3EEC16F0E5522EECAB
:1027900017F0000901E0FBD70F0EE66E3EEC16F0D5
:1027A000E5522EEC17F0000901E0FBD7010EE66EB2
:1027B0003EEC16F0E5522EEC17F0000901E0FBD7D5
:1027C000130EE66E3EEC16F0E5522EEC17F0000903
:1027D00001E0FBD7800EE66E83EC15F0E55200D0E9
:0C27E000E552E5CFDAFFE7CFD9FF120089
:0427EC00D9CFE6FF5C
:1027F000DACFE6FFE1CFD9FFE2CFDAFFE652E652C9
:10280000E652E652D950F90F006EFF0EDA20016E43
:10281000020E00C0DBFF030E01C0DBFF020EDBCFA8
:10282000E6FF030EDBCFE6FFF90EDBCFE6FFFA0E85
:10283000DBCFE6FFFB0EDBCFE6FFD950FC0FE66EE9
:10284000FF0EDA20E66EB8EC0AF0006E070EE15CCF
:1028500002E2E16AE552E16E0050F3CFDEFFF4CF11
:10286000DDFFFC0EDBCFE9FFFD0EDBCFEAFFEF6AF9
:10287000DECF00F0DDCF01F000C0F3FF01C0F4FFB8
:10288000040EE15C02E2E16AE552E16EE552E5CF59
:08289000DAFFE7CFD9FF1200C7
:082898001E0EF66E000EF76E35
:1028A000000EF86E00010900F550AB6F0900F550FD
:1028B000AC6F03E1AB6701D03DD00900F550A66FC6
:1028C0000900F550A76F0900F550A86F090009002D
:1028D000F550E96E0900F550EA6E0900090009009B
:1028E000F550A96F0900F550AA6F09000900F6CF4D
:1028F000ADF0F7CFAEF0F8CFAFF0A6C0F6FFA7C0AF
:10290000F7FFA8C0F8FF0001A95302E1AA5307E0AE
:102910000900F550EE6EA907F8E2AA07F9D7ADC095
:10292000F6FFAEC0F7FFAFC0F8FF0001AB07000E27
:06293000AC5BBFD71200F2
:0A293600D9CFE6FFDACFE6FFE1CFCC
:10294000D9FFE2CFDAFFFB0EDBCF00F0FC0EDBCFCE
:1029500001F00001800E01141AE1FB0EDBCFE9FF4C
:10296000FC0EDBCFEAFFEECFF3FFEDCFF4FFEE2A54
:10297000000EEF22F3CFE9FFF4CFEAFFFD0EDBCF2D
:10298000EFFFEF50016AF36E01C0F4FF10D0FB0EB1
:10299000DB50FE0806E1FD0EDBCFE6FF25EC18F06C
:1029A00005D0FD0EDBCFE6FF03EC00F0E552E5526B
:0A29B000E5CFDAFFE7CFD9FF1200F0
:0629BA00D9CFE6FFDACFE1
:1029C000E6FFE1CFD9FFE2CFDAFFFB0EDBCFF6FF68
:1029D000FC0EDBCFF7FFFD0EDBCFF8FF0800F55054
:1029E00020E02EEC17F0000901E0FBD7FB0EDBCF57
:1029F000F6FFFC0EDBCFF7FFFD0EDBCFF8FF080084
:102A0000F550E66E10EC16F0E552D950FB0FE96E6A
:102A1000FF0EDA20EA6EEE2A000EEE22000EEE2203
:102A2000D4D700D0E552E5CFDAFFE7CFD9FF1200C7
:102A30001C502102F3CF18F0F4CF19F02202F3500A
:102A40001926000EF4201A6E1C502302F3501A2689
:102A5000000EF4201B6E1C502402F3501B261D5048
:102A60002102F3501926F4501A22000E1B221D5089
:102A70002202F3501A26F4501B221D502302F35059
:102A80001B261E502102F3501A26F4501B221E5002
:102A90002202F3501B261F502102F3501B26120066
:102AA000FE0EE3CFE9FFFF0EE3CFEAFFF36AF46A1D
:102AB000EE5203E0F34AF42AFBD71200FF0EE3CFF5
:102AC000F8FFE552FF0EE3CFF7FFE552FF0EE3CF2D
:102AD000F6FFE552E66AE66AE66A0900F55209E0A1
:102AE000FD0EE32A05E1FE0EE32A02E1FF0EE32AD2
:102AF000F4D7FD0EE3CF1DF0FE0EE3CF1EF0FF0E68
:062B0000E3CF1FF01200FC
:0A2B0600D9CFE6FFDACFE6FFE1CFFA
:102B1000D9FFE2CFDAFF0F0E95160F0E8316FD0ECA
:102B2000DB508009F00B83128C948C928EEC01F0B8
:102B30008C808EEC01F08C900F0E8316FD0EDB382E
:102B4000F00BF00B83128EEC01F08C808EEC01F018
:102B50008C90F00E951200D0E552E5CFDAFFE7CF6A
:042B6000D9FF120087
:0C2B6400D9CFE6FFDACFE6FFE1CFD9FFC2
:102B7000E2CFDAFF0F0E95160F0E8316FD0EDB5017
:102B80004009F00B83128C948C928EEC01F08C80B7
:102B90008EEC01F08C900F0E8316FD0EDB38F00BDF
:102BA000F00B83128EEC01F08C808EEC01F08C9097
:102BB000F00E951200D0E552E5CFDAFFE7CFD9FF4E
:022BC000120001
:0E2BC200D9CFE6FFDACFE6FFE1CFD9FFE2CFB1
:102BD000DAFFE652E652FC0EDBCF00F0FD0EDBCF53
:102BE00001F0060ED89000360136E804FBE100C083
:102BF000DEFF01C0DDFF010EDB50BE6EDF50E8409E
:102C0000E8403F0B300B006ECF0EBD140010BD6EC0
:102C1000E552E552E552E5CFDAFFE7CFD9FF1200E2
:102C2000D9CFE6FFDACFE6FFE1CFD9FFE2CFDAFF77
:102C30000F0E95160F0E8316FD0EDB50F00B831250
:102C40008C828C948EEC01F08C808EEC01F08C9058
:102C50000F0E8316FD0EDB38F00BF00B83128EEC9B
:102C600001F08C808EEC01F08C90F00E951200D06B
:0C2C7000E552E5CFDAFFE7CFD9FF1200F4
:042C7C00D9CFE6FFC7
:102C8000DACFE6FFE1CFD9FFE2CFDAFF0F0E9516DC
:102C90000F0E8316FD0EDB50F00B83128C948C927A
:102CA0008EEC01F08C808EEC01F08C900F0E831670
:102CB000FD0EDB38F00BF00B83128EEC01F08C80F4
:102CC0008EEC01F08C90F00E951200D0E552E5CF1D
:082CD000DAFFE7CFD9FF120083
:082CD800D9CFE6FFDACFE6FFD9
:102CE000E1CFD9FFE2CFDAFFFC0EDBCFE9FFFD0E2B
:102CF000DBCFEAFFEF5016E02EEC17F0000901E001
:102D0000FBD7FC0EDBCFE9FFFD0EDBCFEAFFEF5078
:102D1000E66E10EC16F0E552FC0EDB2AFD0E01E328
:102D2000DB2AE2D700D0E552E5CFDAFFE7CFD9FFC3
:022D300012008F
:0E2D3200D9CFE6FFDACFE6FFE1CFD9FFE2CF3F
:102D4000DAFFE6528C848C828EEC01F08C808EEC63
:102D500001F0F00E8314DF6E8C908EEC01F08C800D
:102D60008EEC01F083380F0B0F0BDF128C908C92DE
:102D70008C94DF5000D0E552E552E5CFDAFFE7CF83
:042D8000D9FF120065
:0C2D8400D9CFE6FFDACFE6FFE1CFD9FFA0
:102D9000E2CFDAFFE6528C848C928EEC01F08C80CC
:102DA0008EEC01F0F00E8314DF6E8C908EEC01F04F
:102DB0008C808EEC01F083380F0B0F0BDF128C90A0
:102DC0008C947F0EDF1400D0E552E552E5CFDAFF98
:062DD000E7CFD9FF12005D
:0A2DD6001B6A1A6A196A186A200EB7
:102DE000E76ED8901C361D361E361F36183619363B
:102DF0001A361B362150185C2250195823501A5885
:102E000024501B5809E32150185E2250195A2350B0
:0E2E10001A5A24501B5A1C2AE72EE4D712002F
:022E1E00D9CF0A
:102E2000E6FFDACFE6FFE1CFD9FFE2CFDAFFE652E5
:102E3000E652CE50DF6E010ECFCFDBFFDECF00F0CB
:102E4000DDCF01F000C0F3FF01C0F4FFE552E55211
:0C2E5000E552E5CFDAFFE7CFD9FF120012
:042E5C008C848C9244
:102E60008EEC01F08C808EEC01F083AE0BD08C9058
:102E70008EEC01F08C808EEC01F08C908C94010E25
:102E80000BD00AD08C908EEC01F08C808EEC01F08F
:0A2E90008C908C94000E00D012000C
:062E9A00D9CFE6FFDACFFC
:102EA000E6FFE1CFD9FFE2CFDAFFE652E652FC0EB1
:102EB000DBCFDEFFDBCFDDFF010EDB50CF6EDF505F
:102EC000CE6EE552E552E552E5CFDAFFE7CFD9FF06
:022ED0001200EE
:0E2ED200D9CFE6FFDACFE6FFE1CFD9FFE2CF9E
:102EE000DAFFE652E652FC0EDBCFDEFFDBCFDDFF82
:102EF000010EDB50D76EDF50D66EE552E552E5523B
:0A2F0000E5CFDAFFE7CFD9FF12009A
:062F0A00D9CFE6FFDACF8B
:102F1000E6FFE1CFD9FFE2CFDAFFFD0EDB50FB0B7E
:102F2000CA6ECC6A9E92FD0EDBAE02D09D8201D0AD
:102F30009D92CA84E552E5CFDAFFE7CFD9FF1200B0
:102F4000D9CFE6FFDACFE6FFE1CFD9FFE2CFDAFF54
:102F50000C0EBD129494CA94FD0EDB50CB6ECA8445
:102F6000E552E5CFDAFFE7CFD9FF120094941200C3
:102F7000FF0EE3502B6EEF0E01D0F30EE76EE72E3F
:102F8000BFEF17F00C0E2A6EE76AE72EC5EF17F0B9
:0E2F90002A2EC4EF17F02B2EBDEF17F0120003
:022F9E001B6AAC
:102FA0001A6A100EE76ED8901E361F361A361B3678
:102FB00023501A5C24501B5805E323501A5E2450FA
:0A2FC0001B5A1E2AE72EF0D712005C
:062FCA00F36AF46AFF0E39
:102FD000E124E96EFF0EE220EA6EED6607D02F0EC7
:0E2FE000EF6404D03A0EEF6001D0F32A120025
:022FEE00FF0ED4
:102FF000E3502B6E480E01D04C0EE76EE72EFED745
:0E300000E76AE72EFED72B2EF7D7000012004E
:02300E00000EB2
:10301000F36E00EE00F0060E01D81200EA6002D056
:0E302000EE6AFCD7F350E9601200EE6AFCD7AE
:02302E0015EE9D
:1030300000F025EE00F0F86A179C4CEC14F05BEC05
:0A30400018F083EC01F0FBD712003A
:06304A00FF0EE350ACBADA
:1030500004D0AF6AAB8EAC8A949CACA2FED7AD6EA6
:06306000F36EF46A120099
:0A3066001B6A080EE76ED8901F36B3
:103070001B3624501B5C02E31B6E1F2AE72EF7D77A
:0230800012003C
:0E308200FF0EE350E84E1200000000D000D018
:0830900000D0E82EFAD712006F
:08309800303132333435363794
:0930A00038396162636465660061
:0630AA00CD909D90120084
:0630B000D59EF29A120009
:0230B600120006
:0830B800000000000000000010
:0830C000000000000000000008
:020000040030CA
:0100010022DC
:010003000EEE
:010006008178
:00000001FF
