:020000040000FA
:06000000A7EF0DF0120055
:0A0006000100E61B000001040000E9
:040010000B000000E1
:0C00140046EC05F0FB0EDBCFF3FFDB0633
:10002000F35000090AE094EC05F0FA0EFFEC05F03D
:10003000F3E1011CF1E1010E01D0000E75EF05F0B6
:1000400046EC05F03B0EE12402E3E168E652E16E86
:10005000010EDB6A020EDB6AF90EDBCFF6FFFA0E49
:10006000DBCFF7FFFB0EDBCFF8FF0800F550DF6EAC
:10007000DF5002E199EF04F0250EDF5C02E08CEF27
:1000800004F0030EDB6A040EDB6A050EDB6A060E63
:10009000DB6A070EDB6AAEEC04F02D0EDF5C0CE0D1
:1000A0002B0EDF5C09E0200EDF5C06E0230EDF5C38
:1000B00003E0300EDF5C1AE1DF50300A14E0130A6F
:1000C0000FE0030A0AE00B0A05E0060AE4E1030E6A
:1000D000DB80E1D7030EDB82DED7030EDB84DBD7C8
:1000E000030EDB86D8D7030EDB88D5D72A0EDF5C5C
:1000F0001BE1AAEC04F0F8EC04F010E0030EDB8046
:100100001C681D68130EDBCF21F0140EDBCF22F02C
:100110002DEC0AF0040E1AC0DBFF03D0130EE1EC45
:1001200004F0AEEC04F00BD0090EDB6A4FEC05F0E6
:1001300003E0C3EC05F0FAD7090EE1EC04F0030E7E
:10014000DBB0DB982E0EDF5C1BE1AEEC04F02A0E78
:10015000DF5C0BE1AAEC04F0F8EC04F003E1130E11
:1001600033EC05F0AEEC04F00BD0090EDB6A4FEC7B
:1001700005F003E0C3EC05F0FAD7090E33EC05F007
:10018000680EDF5C07E1AEEC04F0680EDF5C1DE199
:10019000030E18D0740EDF5C17E07A0EDF5C14E0FB
:1001A000480EDF5C06E0540EDF5C03E05A0EDF5CB5
:1001B00002E1020E07D06C0EDF5C03E06A0EDF5C2A
:1001C00004E1010E86EC05F0C9DBDF506E0A01E1A7
:1001D0007FD31E0A01E192D1200A01E18FD13F0AAB
:1001E00001E149D11A0A01E146D10D0A01E143D1E9
:1001F000200A01E140D13A0A01E13DD1200A01E1A2
:100200003AD1260A01E135D10D0A01E132D11A0AAB
:1002100001E1D9D0200A4AE0300A1FE0460A0EE088
:10022000250A01E083D3D950F90FE96EFF0EDA20D9
:10023000EA6E010EEE5E000EEE5AEE5A94EC05F0F8
:10024000250EE66E95DB03E1011C01E169D390EC1C
:1002500005F001E26BD3DB2A69D3080EDB6A040EDA
:10026000DB50010806E2040EDB0458EC05F0DB501D
:100270008BDB080EDB5009E0030EDB50010B05E1C0
:1002800072DB01E04DD3080EDB6A64DBEFCFDFFFEA
:1002900008EC06F003E1011C01E142D390EC05F00B
:1002A00001E3DB2A60DB01E141D33AD3070EDB50E7
:1002B00002080FE1D4EC05F0030E9BEC05F00E0EE6
:1002C000EECFDBFF0F0EEECFDBFF100EEECFDBFF2E
:1002D00020D0F70EDBCF03F0F80EDBCF04F0020ED8
:1002E000035E000E045AF70E03C0DBFFF80E04C0D5
:1002F000DBFF03C0E9FF04C0EAFF8BEC05F0026AF4
:100300000E0E00C0DBFF0F0E01C0DBFF100E02C09F
:10031000DBFF0E0EDBCFE6FF0F0EDBCFE6FF100E8E
:10032000DBCFE6FFD4EC0BF0E552E552E552130EBD
:100330001BC0DBFF140E1CC0DBFF060EDB5005E00C
:10034000130ECFEC05F001E26ADBF3EC05F002E2FC
:10035000130E37DBB6EC05F006E0040ECFEC05F02B
:1003600002E2050E2EDB030EDBB005D0FCDA01E065
:10037000D7D2080EDB6A090EDB6A0E0EDBCFF6FF62
:100380000F0EDBCFF7FF100EDBCFF8FF0800F550A4
:10039000DF6EDF5014E0F9EC05F011E208EC06F036
:1003A00003E1011C01E1BCD2BBDB01E3DB2A090E46
:1003B000DB2AD9500E0FE96E000ECBDBE7D7D3DA7C
:1003C00001E1B4D2ADD2C6DA110EEECFDBFF120ED0
:1003D000EDCFDBFF110EDBCFE6FF120EDBCFE6FF2A
:1003E000C6EC0BF0E552E552130EF3CFDBFF140E13
:1003F000F4CFDBFF060EDB5004E0130ED0DB01E28E
:100400000EDBF3EC05F002E2130EDBDAAFDB05E006
:10041000040EC5DB02E2050ED4DA030EDBB005D014
:10042000A2DA01E07DD2080EDB6A090EDB6A110E4A
:10043000DBCFE9FF120EDBCFEAFFEFCFDFFFDF50AC
:1004400014E0D7DB12E2E4DB03E1011C01E168D236
:1004500067DB01E3DB2A090EDB2A110EDB2ADBCF87
:10046000E9FF120EE8E3DB2AE6D77DDA01E15ED28E
:1004700057D2030EDB8E070EDB0410E195DB040E72
:100480005ADB0A0EEECFDBFF0B0EEECFDBFF0C0EBE
:10049000EECFDBFF0D0EEECFDBFF6CD0070EDB5097
:1004A00003082CE1030EDBAE0DD0B2DA020E76DAD1
:1004B000EFCF00F0016A026A036A00AE39D001682A
:1004C000026835D0F70EDBCF01F0F80EDBCF02F07B
:1004D000020E015E000E025AF70E01C0DBFFF80E9D
:1004E00002C0DBFF01C0E9FF02C0EAFFEFCF00F06E
:1004F0000A0E00C0DBFF0B0EDB6A38D0070EDB50A4
:10050000020809E1030EDBAE04D059DB02AE10D0C5
:100510000ED055DB0DD0030EDBAE12D079DA020E11
:100520003DDAF9DA026A036A01AE02D002680368B2
:10053000E2DA0C0E02C0DBFF0D0E03C0DBFF1AD0A7
:10054000F70EDBCF02F0F80EDBCF03F0020E025EF7
:10055000000E035AF70E02C0DBFFF80E03C0DBFFEC
:1005600002C0E9FF03C0EAFFD6DAC5DA0C0EDB6A87
:100570000D0EDB6A060EDB5005E1010EF36E050E73
:10058000F3CFDBFF150EDB6A160EDB6AD950370F8F
:10059000006E000EDA20016E390E00C0DBFF3A0E4D
:1005A00001C0DBFF380EDB6A080EDB6A0A0EAEDA2A
:1005B000DF50780A12E0200A10E0280A0CE0200A36
:1005C0000AE03F0A06E00D0A02E0200A08E1020EF6
:1005D00005D0080E03D0080EDF26100E97DA030EA2
:1005E000DBBE02D0DB92DB94DB50800B24E08ADAA6
:1005F000D890030EEB50000A08E6000EEE5C000EE9
:10060000EE58000EEE58000EEE5815E213DA1F6891
:100610002068216822688EEC0BF00A0E16C0DBFF02
:100620000B0E17C0DBFF0C0E18C0DBFF0D0E19C040
:10063000DBFF2D0E08D0030EDBA202D02B0E03D061
:10064000DBA408D0200EF36E170EF3CFDBFF150EE0
:10065000DB2A02D0170EDB6A050EDB5003E1B7D9A7
:1006600001E189D0D00E006E1B0E016E000E026EED
:10067000070EDBCF03F0046A056A066A03C01FF0A9
:1006800004C020F005C021F006C022F0D3D941EC0F
:100690000CF000501624F36E01501720F46E025037
:1006A0001820F86EF4CFF7FFF3CFF6FF0800090E1D
:1006B000F5CFDBFF580EDF5C0FE1610EF36E090E24
:1006C0007BD90AE3200E006E090EDBCFE7FF005056
:1006D000E75E090EE7CFDBFF070EDBCF00F0016A14
:1006E000026A036A0FDA00C01FF001C020F002C0E6
:1006F00021F003C022F0EECF1AF0EECF1BF0EECFC8
:100700001CF0EFCF1DF041EC0CF01DC0EDFF1CC044
:10071000EDFF1BC0EDFF1AC0EFFF390EDBCFE9FF85
:10072000DB063A0EDBCFEAFF01E2DB06090EDBCF88
:10073000EFFF150EDB2A4BD995E1030EDBA61DD08A
:100740006F0EDF5C06E1C1D918E3150EDB285BDA1A
:1007500014D0780EDF5C09E0580EDF5C06E0620E14
:10076000DF5C03E0420EDF5C08E1020EF36E160E62
:10077000F3CFDBFF02D0150EDB6A030EDB50100B4C
:100780000EE0040EDBCF00F0050EDB50D8800054E5
:1007900006E2060EDB5003E1040EDB5034DA95D995
:1007A0000AE2050EDBCFE7FF150EDB50E75E050E14
:1007B000E7CFDBFF02D0050EDB6A040EDBCF00F0D3
:1007C000160E45D9D880005414E2160EDBCFE6FF92
:1007D000150EDBCFE6FF040EDBCFE6FF050EDB5088
:1007E000E552E75CE552D880E754E552D880E754FB
:1007F0005FD9030EDB50010B0BE1080EDB5008E064
:10080000B2D801E08DD0080EDB50BED8080EDB6AEE
:10081000170EDB5007E088D9170EF1D903E1011C50
:1008200001E17ED0160EDB5016E07ED9300EE66E6A
:100830009FD802E1011C74E077D9DFCFE6FF4CECD2
:100840000BF0E552E552E552F4CF01F00001F31C44
:1008500002E1011C65E0050EDBCF00F0160EDB5057
:10086000D880005409E2050EDBCFE7FF160EDB50FF
:10087000E75E050EE7CFDBFF300EE66E050ECBD947
:100880004FE1390EDB2ADBCFE9FF3A0E01E3DB2A29
:10089000DBCFEAFF090EEFCFDBFFDB500EE044D9E0
:1008A000090EADD902E1011C3BE0390EDB2ADBCF9A
:1008B000E9FF3A0EEDE3DB2AEBD755D831E1160E0E
:1008C000DBCFE6FF080EC3D8E552E7245DD82ED073
:1008D000070EDB50030A1CE0010A14E0030A07E0DC
:1008E0007BD9DBCFEEFF020EDBCFEDFF1FD0F5D8BB
:1008F000056A03AE02D0046805682CD8BCD805C0D0
:10090000EEFF14D0EAD803BE046824D8B4D80ED0C1
:1009100063D9DBCFEFFF0AD07BD905E1011C03E1EE
:10092000F368F46810D0FCD801E3DB2A79D935EFFD
:1009300000F0010EDBCF00F0020EDBCF01F000C0B3
:10094000F3FF01C0F4FF3B0EE15C02E2E16AE55215
:10095000E16ECBD029D9020E9BEF05F061D90800DA
:10096000F550DF6E1200200EE66E080E0BEF06F05B
:100970004CEC0BF0E552E552E552F3CF00F0F4CF2A
:1009800001F00001F31C1200006E016AD950010F42
:100990004DD90050EE260150ED221200045E000EEB
:1009A000055AF70E04C0DBFFF80E05C0DBFF04C0DC
:1009B000E9FF05C0EAFF1200DBCFF4FFF350F45C5F
:1009C0001200DB50E76E040EE7CFDBFF12000A0EC9
:1009D000DBCF00F00B0EDBCF01F00C0EDBCF02F013
:1009E0000D0EDBCF03F000500110021003101200B7
:1009F000130EEECFDBFF140EEDCFDBFF130EDBCFBC
:100A000000F0140EDBCF01F00001800E0114120083
:100A1000F70EDBCF04F0F80EDBCF05F01200050E69
:100A2000DB50E66ED950130F01D9E552E750EE6E58
:100A3000ED6A12000A0EDBCF1AF00B0EDBCF1BF0B3
:100A40000C0EDBCF1CF00D0EDBCF1DF01200DBCF48
:100A5000E6FF150EDBCFE6FF050EDB50E552E7247F
:100A6000E552E7241200DB50CED8010EF36E060EDD
:100A7000F3CFDBFF1200EE50EFCFEAFFE96E02C0CA
:100A8000EEFF03C0EEFF04C0EEFF1200D9CFE6FF79
:100A9000DACFE6FFE1CFD9FFE2CFDAFF1200DFCFF6
:100AA000E6FFE66A75EC0DF0E552E552F3501200F0
:100AB000E76E080EE7CFDBFF1200EECF00F0EECFBF
:100AC00001F0EFCF02F0036A1200050EDBCF00F059
:100AD000150EDB50D88000541200010EDBCF02F05F
:100AE000020EDBCF03F0046A1200E552E5CFDAFF15
:100AF000E7CFD9FF12000A0E00C0DBFF0B0E01C0CA
:100B0000DBFF1200D9500A0F16EF06F0F36E070E46
:100B1000F3CFDBFF1200EECF00F0EFCF01F01200B9
:100B2000010EDB2A020E1200FC0EDBCFE6FFFD0EEB
:100B3000DBCFE6FF1200005E000E015AF70E00C088
:100B4000DBFFF80E01C0DBFF00C0E9FF01C0EAFFD8
:100B50001200DA20EA6EEF2AEECFF6FF000EEF2247
:100B6000EECFF7FFEF22EECFF8FF1200040EDBCF3F
:100B7000E6FF130EDB50E552E75C9ADFDB5004DF43
:100B8000060EDB501200090EDB500A0DF350DF2475
:100B9000D00FE76E090EE7CFDBFFAEEF04F0DB50BE
:100BA000F36E050EDCEF04F0F70EDBCF00F0F80E6D
:100BB000DBCF01F01200DFCFE6FFB8EF04F028DF53
:100BC000030EECDE5DEF05F00AEC00F0E552E552B5
:100BD000E552E55200091200BDDEEE50EFCFEAFF0C
:100BE000E96E010E1200130EDB50F36E040EDCEF03
:100BF00004F0040EDB50F36E090EDCEF04F0DBCFE3
:100C0000E6FFB8EF04F0E76E050EE7CFDBFF12005A
:100C10008BDFDBEF05F0DBCFE6FF86DFE4EF05F0EF
:100C2000D950F90FE96EFF0EA9EF05F0E96E000E3D
:060C3000DA20EA6E12005A
:0A0C360003DA020EE126DE6ADD6A31
:100C4000938A8A9A939A300E0BDA938A180E08DAEE
:100C50008150200B200A01E0010E006E016A00BEE7
:100C6000016800C0DEFF01C0DDFFDF50006E020E34
:100C7000E15C02E2E16AE552E16E0050F6D1DFD9B3
:100C8000E652DF6ADFCF00F0080EE76E0018E8AE2C
:100C900002D0E73402D0E750005C19E28A9A939AB6
:100CA000010EDED9FE0EDB50010BE8B0938AE8A0FE
:100CB000939A050ED5D9938A020ED2D9FE0EDB4047
:100CC0007F0BE76EFE0EE7CFDBFFDF2ADBD7E552B7
:100CD000CCD1D9CFE6FFE1CFD9FF020EE126DF6A02
:100CE000010EDB6A010EDBCF00F0080EE76E001884
:100CF000E8AE02D0E73402D0E750005C24E28A9AE2
:100D0000939A00000000938A000000000000000099
:100D100000000000000000008150200B01E0010EE7
:100D2000F36E010EDB5004E0D890F336E806FCE1E8
:100D3000F350DF10DF6E050EE66EDDEC0DF0E552D0
:100D4000010EDB2ACFD7DF5000D0006E020EE15C2F
:100D500002E2E16AE552E16E0050E552E7CFD9FFC9
:100D60001200000000000000000000000000000071
:100D70000000000000000000000000000000000073
:100D80000000000000001200960E5EEF08F0050E55
:100D90005EEF08F0280EE66EFFEC0AF0E5525FEC1D
:100DA0000DF00009FCE1280EE66E88EC0CF0E5522F
:100DB0005FEC0DF00009FCE15FEC0DF00009FCE1D7
:100DC000060EE66E88EC0CF0E552120038D9040EDF
:100DD000E12665D90F0E04010215DF6E040EF36ED5
:100DE000020EDBCFF4FFF350F45C6BE260D9010E2E
:100DF00019C0DBFFDBCF08F008C01DF063EC08F082
:100E00001BC004F01CC005F01DC006F01EC007F09A
:100E10000D6A0E6A800E0F6E3D0E106E030EDBCF54
:100E200015F015C01DF063EC08F01BC011F01CC0DC
:100E300012F01DC013F01EC014F01BD90DC01BF022
:100E40000EC01CF00FC01DF010C01EF00BEC09F01E
:100E50001BC009F01CC00AF01DC00BF01EC00CF036
:100E600008D904C01BF005C01CF006C01DF007C067
:100E70001EF00BEC09F01BC000F01CC001F01DC0FF
:100E800002F01EC003F004C420F005C421F006C423
:100E900022F007C423F075EC08F01BC004F41CC05A
:100EA00005F41DC006F41EC007F4030EDB50020D4E
:100EB000030EF3CFDBFFFBD81D50DF6E020EDB2AE3
:100EC0008DD7206A216A7A0E226E440E236E04C4E6
:100ED0001BF005C41CF006C41DF007C41EF00BEC8B
:100EE00009F078EC09F01CC00AF41DC00BF4640E84
:100EF000216E226A49EC0DF01CC00AF41DC00BF4EF
:100F0000040EE15C02E2E16AE552E16EAED097D8F0
:100F1000040EE126DF6A010EDB6AC1D80401023942
:100F20000F0BE76E010EE7CFDBFF8ED80151100DDE
:100F3000010EF3CFDBFF88D80351000807E2020E51
:100F4000DB507F0AE76E020EE7CFDBFF020EDB50BD
:100F5000086F096B040EE15C02E2E16AE552E16EA2
:100F600084D06DD8460EE12604010351000805E245
:100F700089D8AE0E006E1B0E04D084D8A20E006E6F
:100F80001B0E016E026A00C0E6FFE66E02C0E6FFBD
:100F9000D9CFE6FFDACFE6FF5AEC0AF0036E090E6E
:100FA000E15E03505FEC0DF00009FCE1E66AF9EC4C
:100FB0000BF0E552D9CFE6FFDACFE6FF11EC0DF0EA
:100FC000E552E552460EE15C02E2E16AE552E16E6D
:100FD0004CD035D8020EE126939C819CDBDE2BDEC3
:100FE000CC0E59D8440E57D8818C010EDE6EDD6AC6
:100FF000DECF00F0DDCF01F0013404E2005008083C
:10100000000E015407E3640E59D8DF2A010EF0E305
:10101000DB2AEED7819C0FDECC0E3DD8BE0E3BD82E
:1010200058DE0401026F55DE0401016FCFDE6FDF71
:1010300098DF0401086B096B0A6B0B6BD0D7D9CF13
:10104000E6FFE1CFD9FF1200020EDBCFE6FF010E73
:10105000DB50E552E710E76E020EE7CFDBFF120030
:10106000E66EDDEC0DF0E5521200E552E7CFD9FF58
:1010700012001BC020F01CC021F01DC022F01EC0B9
:1010800023F012000AC4E6FF0BC4E6FF08C4E6FF23
:1010900009C4E6FF1200E66EF2DDE5521200020E10
:1010A000DB6A010EF36E030EF3CFDBFF12000A0EB4
:1010B000006E226EDFCF1DF0C3EF0DF0E66E87EC01
:0610C0000DF0E5521200E4
:0A10C600259E05D0259E1DAE02D028
:1010D0001D6C258E1DC017F0166A296A286A860EB7
:1010E000186E196AC3EF09F0237E256AFFEC09F038
:1010F00017EC0AF025B6A7EF09F025A20AD025AA19
:1011000003D025BEA7EF09F025A4B3EF09F0B0EF97
:1011100009F025AA05D025ACB3EF09F0B0EF09F02E
:1011200025A00AD025A808D025BE04D025A402D029
:10113000BCEF09F0C0EF09F0286A196A23501E5C61
:10114000276E10E31BC029F01CC016F01DC017F05D
:101150001EC026F020C01BF021C01CF022C01DF0D4
:10116000253A09D020C029F021C016F022C017F07E
:1011700023C026F0276C259E25BC258E26C018F09E
:1011800025B0EFEF09F01A0E2760EFEF09F0186AAB
:101190001E6A25A408D01B6C1C1E1D1E1E1EE86A9C
:1011A0001C221D221E2225AC08D0296C161E171EDB
:1011B000181EE86A1622172218221A6A275207E018
:1011C0001E341D321C321B321A32272EF9D71B5007
:1011D00029261C5016221D5017221E5018221AC0F4
:1011E00028F0259E18AE0BD0286C291E161E171E3F
:1011F000181EE86A2922162217221822258E18A006
:1012000006D0D8801732163229322832262A26C034
:1012100018F0C3EF09F0256AFFEC09F017EC0AF0AB
:1012200025B6A7EF09F025A205D025B8A7EF09F04C
:10123000AEEF09F025AA05D025B0A7EF09F0AEEF73
:1012400009F025B002D025A802D0BAEF09F0196A3A
:1012500023501E24186EE86A19227E0E185EE86A72
:10126000195A286A296A166A176A22501D02F4CF91
:1012700017F0F3CF16F021501D02F3502926F45039
:101280001622000E172222501C02F3502926F45079
:101290001622000E172220501D02F3502826F4506B
:1012A0002922000E1622172221501C02F350282654
:1012B000F4502922000E1622172222501B02F3504E
:1012C0002826F4502922000E1622172220501C0234
:1012D000F4502826000E29221622172221501B0224
:1012E000F4502826000E292216221722C3EF09F0F7
:1012F000256AFFEC09F025B682EF09F025A20ED091
:1013000025B405D07F0E1D6EFF0E1C6E1FD0800E03
:101310001D6E1C6A1BD01D6A1C6A18D025B0FBD735
:101320008F0E1E60EDD77E0E1E64F5D78E0E1E5CEE
:1013300005E0D8901D321C321E2AF8D725A406D00D
:101340001C6C1D1EE86A1D221DAEE5D712007F0E23
:101350001E6EFF0E1D6E1C6E1B6E12007F0E25BED4
:10136000FF0E1E6E02D07F0E1E6E800E1D6E1C6A5A
:101370001B6AF3D725AE04D0800E1E6E1D6AF7D708
:101380001E6A1D6AF4D71750161029102810F8E0AD
:1013900019BEF0D717BE0CD018501910EBE0D8903A
:1013A00028362936163617361806D8A01906F2D769
:1013B0001950D4E11828D2E028AE11D07F0E28149D
:1013C00002E129A00CD0292AE86A1622172207E395
:1013D000D880173216322932182A1828BFE0185040
:1013E000C9E029C01BF016C01CF017341D6E183060
:1013F0001E6E1D321E9E25BE1E8EADEF09F01D36DF
:101400001E3602E32584257E06E125801E6A1D6ABC
:101410001C6A1B6A12001E2803E0D8801D321200CD
:10142000D8901D3202E12582120025861200223654
:10143000233602E3258C257E06E12588236A226A6D
:10144000216A206A1200232803E0D8802232120089
:10145000D8902232EAE1258A12001DC029F01CC072
:1014600028F01C502102F4CF1BF0F3CF1AF01D50CE
:101470002202F4CF1DF0F3CF1CF02102F3501B2603
:10148000F4501C22E86A1D2228502202F3501B2629
:10149000F4501C22E86A1D2222AE53EF0AF02850B5
:1014A0001C5E29501D5A29AE000C21501C5E225092
:0414B0001D5A000CB5
:0C14B400D9CFE6FFDACFE6FFE1CFD9FF89
:1014C000E2CFDAFFE652E652E652E652D950F90F81
:1014D000006EFF0EDA20016E020E00C0DBFF030E6D
:1014E00001C0DBFF020EDBCFE6FF030EDBCFE6FF22
:1014F000F90EDBCFE6FFFA0EDBCFE6FFFB0EDBCF0C
:10150000E6FFD950FC0FE66EFF0EDA20E66E20EC07
:1015100000F0006E070EE15C02E2E16AE552E16E66
:101520000050F3CFDEFFF4CFDDFFFC0EDBCFE9FF91
:10153000FD0EDBCFEAFFEF6ADECF00F0DDCF01F07A
:1015400000C0F3FF01C0F4FF040EE15C02E2E16AB7
:10155000E552E16EE552E5CFDAFFE7CFD9FF1200A1
:10156000060EF66E000EF76E000EF86E040109000E
:10157000F550116F0900F550126F03E1116701D0AA
:101580003DD00900F5500C6F0900F5500D6F0900B2
:10159000F5500E6F09000900F550E96E0900F5508D
:1015A000EA6E090009000900F5500F6F0900F550B7
:1015B000106F09000900F6CF13F4F7CF14F4F8CF39
:1015C00015F40CC4F6FF0DC4F7FF0EC4F8FF0401B8
:1015D0000F5302E1105307E00900F550EE6E0F07BC
:1015E000F8E21007F9D713C4F6FF14C4F7FF15C4C7
:0E15F000F8FF04011107000E125BBFD71200B6
:0215FE00D9CF43
:10160000E6FFE1CFD9FF0F0E8316951695949592BC
:1016100095908C948C928C90C4EC06F0300E33D85C
:10162000050EE66E32EC0DF0E552300E2CD8010EB0
:10163000E66E32EC0DF0E552320E25D829D8FEE1E7
:1016400027D8FEE1FE0EDBCFE6FF88EC0CF0E5527A
:101650001FD8FEE1080E17D81BD8FEE10F0E13D8D5
:1016600017D8FEE1010E0FD813D8FEE1040E0BD8F7
:101670000FD8FEE1800EE66EF9EC0BF0E552E55274
:10168000E7CFD9FF1200E66E88EC0CF0E5521200AD
:081690005FEC0DF000091200EF
:08169800D9CFE6FFDACFE6FF2F
:1016A000E1CFD9FFE2CFDAFFFB0EDBCF00F0FC0E7B
:1016B000DBCF01F00001800E01141AE1FB0EDBCF3D
:1016C000E9FFFC0EDBCFEAFFEECFF3FFEDCFF4FF37
:1016D000EE2A000EEF22F3CFE9FFF4CFEAFFFD0E72
:1016E000DBCFEFFFEF50016AF36E01C0F4FF10D0C3
:1016F000FB0EDB50FE0806E1FD0EDBCFE6FFB5EC8E
:101700000DF005D0FD0EDBCFE6FFF1EC0DF0E5525C
:0C171000E552E5CFDAFFE7CFD9FF120069
:04171C001A501F023E
:10172000F3CF16F0F4CF17F02002F3501726000E77
:10173000F420186E1A502102F3501826000EF420DF
:10174000196E1A502202F35019261B501F02F35033
:101750001726F4501822000E19221B502002F350B5
:101760001826F45019221B502102F35019261C5040
:101770001F02F3501826F45019221C502002F35077
:0C17800019261D501F02F35019261200FC
:04178C00FE0EE3CF9B
:10179000E9FFFF0EE3CFEAFFF36AF46AEE5203E0DB
:1017A000F34AF42AFBD71200FF0EE3CFF8FFE5520D
:1017B000FF0EE3CFF7FFE552FF0EE3CFF6FFE55252
:1017C000E66AE66AE66A0900F55209E0FD0EE32AD8
:1017D00005E1FE0EE32A02E1FF0EE32AF4D7FD0E37
:1017E000E3CF1BF0FE0EE3CF1CF0FF0EE3CF1DF0A6
:0217F0001200E5
:0E17F200D9CFE6FFE1CFD9FF0F0E9516831673
:10180000FE0EDB508009F00B83128C948C920ED864
:101810000F0E8316FE0EDB38F00BF00B831206D88A
:10182000F00E9512E552E7CFD9FF1200B1EC06F0A9
:0A1830008C80B1EC06F08C901200E1
:06183A00D9CFE6FFE1CF6B
:10184000D9FF0F0E95168316FE0EDB504009F00BE4
:1018500083128C948C920ED80F0E8316FE0EDB38FA
:10186000F00BF00B831206D8F00E9512E552E7CF7D
:10187000D9FF1200B1EC06F08C80B1EC06F08C9030
:02188000120054
:0E188200196A186A176A166A200EE76ED89067
:101890001A361B361C361D361636173618361936CC
:1018A0001F50165C205017582150185822501958B4
:1018B00009E31F50165E2050175A2150185A225023
:0A18C000195A1A2AE72EE4D7120085
:0618CA00D9CFE6FFE1CFDB
:1018D000D9FF0F0E95168316FE0EDB50F00B831208
:1018E0008C828C940ED80F0E8316FE0EDB38F00B14
:1018F000F00B831206D8F00E9512E552E7CFD9FF10
:101900001200B1EC06F08C80B1EC06F08C90120065
:10191000D9CFE6FFE1CFD9FF0F0E95168316FE0E45
:10192000DB50F00B83128C948C920ED80F0E831622
:10193000FE0EDB38F00BF00B831206D8F00E95127A
:10194000E552E7CFD9FF1200B1EC06F08C80B1EC84
:0619500006F08C9012006D
:0A195600D9CFE6FFE1CFD9FFE6523A
:101960008C848C82B1EC06F08C80B1EC06F0F00E29
:101970008314DF6E8C90B1EC06F08C80B1EC06F035
:1019800083380F0B0F0BDF128C908C928C94DF50EE
:0A199000E552E552E7CFD9FF12003F
:06199A00D9CFE6FFE1CF0A
:1019A000D9FFE6528C848C92B1EC06F08C80B1ECBD
:1019B00006F0F00E8314DF6E8C90B1EC06F08C8094
:1019C000B1EC06F083380F0B0F0BDF128C908C9468
:0E19D0007F0EDF14E552E552E7CFD9FF12007B
:0219DE00D9CF5F
:1019E000E6FFE1CFD9FF14D80FE05FEC0DF000095E
:1019F000FCE10ED8E66E65EC0CF0E552FD0EDB2A3C
:101A0000FE0EF1E3DB2AEFD7E552E7CFD9FF120054
:101A1000FD0EDBCFF6FFFE0EDBCFF7FF0800F55023
:021A20001200B2
:0E1A2200D9CFE6FFE1CFD9FF14D80FE05FEC7B
:101A30000DF00009FCE10ED8E66E65EC0CF0E55205
:101A4000FD0EDB2AFE0EF1E3DB2AEFD7E552E7CFEE
:101A5000D9FF1200FD0EDBCFE9FFFE0EDBCFEAFF60
:041A6000EF50120031
:0C1A6400FF0EE3502B6EEF0E01D0F30ECE
:101A7000E76EE72E39EF0DF00C0E2A6EE76AE72EBF
:101A80003FEF0DF02A2E3EEF0DF02B2E37EF0DF02D
:021A9000120042
:0E1A9200196A186A100EE76ED8901C361D36C1
:101AA000183619362150185C2250195805E3215078
:0E1AB000185E2250195A1C2AE72EF0D7120099
:021ABE008C8416
:101AC0008C92B1EC06F08C80B1EC06F083AE02D0C3
:101AD00003D8010C01D8000C8C90B1EC06F08C807E
:0A1AE000B1EC06F08C908C9412001B
:061AEA00F36AF46AFF0E2E
:101AF000E124E96EFF0EE220EA6EED6607D02F0EBC
:0E1B0000EF6404D03A0EEF6001D0F32A120019
:021B0E00FF0EC8
:101B1000E3502B6E480E01D04C0EE76EE72EFED739
:0E1B2000E76AE72EFED72B2EF7D70000120043
:021B2E00000EA7
:101B3000F36E00EE00F0060E01D81200EA6002D04B
:0E1B4000EE6AFCD7F350E9601200EE6AFCD7A3
:021B4E0013EE94
:101B500081F023EE81F0F86A259CB0EC0AF0F2ECFB
:0A1B60000DF0E9EC07F0FBD71200CE
:061B6A00FF0EE350ACBACF
:101B700004D0AF6AAB8EAC8A949CACA2FED7AD6E9B
:061B8000F36EF46A12008E
:0A1B8600196A080EE76ED8901D36AC
:101B900019362250195C02E3196E1D2AE72EF7D779
:021BA000120031
:0E1BA20054656D703A25642E25644300546529
:0A1BB0006D703A2D25642E256400A7
:061BBA00FF0EE350E84EAF
:101BC0001200000000D000D000D0E82EFAD712009A
:101BD00030313233343536373839616263646566A3
:011BE0000004
:021BE2001200EF
:021BE4001200ED
:0A1BE60000000000000000000000F5
:011BF00000F4
:020000040030CA
:010003000EEE
:010006008178
:00000001FF
